S01600005465737450726F6A6563745554532E737265639B
S113000046C2000065C2000063C2000061C2000075
S11300105FC200005DC200005BC2000059C2000064
S113002057C2000055C2000053C2000051C2000074
S11300304FC200004DC200000C94A7080C94D408D1
S11300400C9401090C942E090C945B090C948809F6
S11300500C94B5090C94E2090C940F0A0C943C0A14
S113006037C2000035C2000033C2000031C20000B4
S11300702FC200002DC200002BC2000029C20000C4
S113008027C2000025C2000023C2000021C20000D4
S11300901FC200001DC200001BC2000019C20000E4
S11300A017C2000015C2000013C2000011C20000F4
S11300B00FC200000DC200000BC200000C942B0CF8
S11300C00C94580C0C94850C0C94B20C0C94DF0C0E
S11300D00C940C0D0C94390D0C94660D0C94930D2A
S11300E00C94C00DF5C10000F3C10000F1C1000083
S11300F0EFC10000EDC10000EBC10000E9C1000048
S1130100E7C10000E5C10000E3C10000E1C1000057
S1130110DFC10000DDC10000DBC10000D9C1000067
S1130120D7C10000D5C10000D3C10000D1C1000077
S1130130CFC100000C94690A0C94960A0C94C30A6B
S11301400C94F00A0C941D0B0C944A0B0C94770B32
S11301500C94A40B0C94D10B0C94FE0BB9C10000AD
S1130160B7C10000B5C10000B3C10000B1C10000B7
S1130170AFC10000ADC10000ABC10000A9C10000C7
S1130180A7C10000A5C10000A3C10000A1C10000D7
S11301909FC100009DC100009BC1000099C10000E7
S11301A097C1000095C1000093C1000091C10000F7
S11301B00C94ED0D0C941A0E0C94470E0C94740EC2
S11301C00C94A10E0C94CE0E83C1000081C10000DA
S11301D07FC100007DC100007BC1000079C1000027
S11301E077C1000075C1000073C1000071C1000037
S11301F06FC100006DC100006BC100000000000071
S1130200000000202020202000205050500000003A
S1130210005050F850F850502078A07028F020C0BA
S1130220C810204098186090A040A89068602040B2
S1130230000000001020404040201040201010100A
S11302402040005020F8205000002020F8202000FA
S113025000000000602040000000F80000000000E2
S1130260000000606000081020408000708898A89A
S1130270C8887020602020202070708808102040DA
S1130280F8F810201008887010305090F81010F80A
S113029080F008088870304080F0888870F8081072
S11302A020404040708888708888707088887808FA
S11302B010600060600060600000606000602040CA
S11302C0081020402010080000F800F800008040CA
S11302D02010204080708808102000207088086852
S11302E0A8A87070888888F88888F08888F088883A
S11302F0F070888080808870E09088888890E0F82A
S11303008080F08080F8F88080E080808070888031
S113031080988870888888F88888887020202020B1
S11303202070381010101090608890A0C0A09088A1
S1130330808080808080F888D8A888888888888889
S1130340C8A898888870888888888870F08888F019
S113035080808070888888A89068F08888F0A09051
S113036088788080700808F0F820202020202088D9
S113037088888888887088888888885020888888B1
S1130380A8A8D88888885020508888888850202039
S11303902020F80810204080F83820202020203821
S11303A000804020100800E02020202020E0205081
S11303B08800000000000000000000F84020100049
S11303C0000000000070087888788080B0C88888B1
S11303D0F000007080808870080868988888780029
S11303E0007088F88070304840E040404000007859
S11303F0887808308080B0C88888882000602020F1
S113040020701000301010906040404850605048F8
S1130410602020202020700000D0A8A88888000038
S1130420B0C8888888000070888888700000F088C8
S1130430F08080000068987808080000B0C88080C8
S113044080000070807008F04040E0404048300078
S11304500088888898680000888888502000008870
S113046088A8A85000008850205088000088887808
S113047008700000F8102040F810202040202010C0
S11304802020202020202040202010202040112443
S11304901FBECFEFCDBFDFE5DEBF00E00CBF10E233
S11304A0A0E0B0E2E4ECFBE200E00BBF02C0079086
S11304B00D92A236B107D9F723E2A2E6B0E201C059
S11304C01D92AE3FB207E1F70E9426110C94E0158D
S11304D097CD04C0615071098109910961157105B5
S11304E081059105B9F70895BF92CF92DF92EF92FB
S11304F0FF920F931F93CF93DF931F92CDB7DEB775
S113050000E016E06894FF24F3F8F801F68264E052
S113051070E080E090E0DDDFF801F58264E070E0F7
S113052080E090E0D6DF0F2EFBE2BF2EF02DB982E3
S113053080EA99E0D4D4C12CD12C760100E412E4F1
S11305402FE030E043E0BE016F5F7F4F80EA99E027
S1130550F5D400E616E0FF24F394F801F682B9829C
S1130560BE016F5F7F4F80EA99E002D5F801F68201
S1130570E0EAF9E0818185FFFDCF80EA8093A0095C
S1130580E0EAF9E0818186FFFDCFE0EAF9E080E46A
S113059081838081BE016F5F7F4F80EA99E0FED442
S11305A08BE28983BE016F5F7F4F80EA99E0E0D4DC
S11305B081E080936606E0EAF9E0818185FFFDCF62
S11305C086EA8093A009E0EAF9E0818186FFFDCF05
S11305D0E0EAF9E080E481838081BE016F5F7F4FB0
S11305E080EA99E0DBD48BE28983BE016F5F7F4FA1
S11305F080EA99E0BDD481E080936606E0EAF9E000
S1130600818185FFFDCF88EC8093A009E0EAF9E0C1
S1130610818186FFFDCFE0EAF9E080E48183808177
S1130620BE016F5F7F4F80EA99E0B8D48BE2898383
S1130630BE016F5F7F4F80EA99E09AD481E0809396
S11306406606E0EAF9E0818185FFFDCF82EA8093C6
S1130650A009E0EAF9E0818186FFFDCFE0EAF9E054
S113066080E481838081BE016F5F7F4F80EA99E0DF
S113067095D48BE28983BE016F5F7F4F80EA99E056
S113068077D481E080936606E0EAF9E0818185FF12
S1130690FDCF8FE28093A009E0EAF9E0818186FF33
S11306A0FDCFE0EAF9E080E481838081BE016F5FE1
S11306B07F4F80EA99E072D48BE28983BE016F5F39
S11306C07F4F80EA99E054D481E080936606E0EAA3
S11306D0F9E0818185FFFDCF88EF8093A009E0EAEE
S11306E0F9E0818186FFFDCFE0EAF9E080E48183CF
S11306F08081BE016F5F7F4F80EA99E04FD48BE227
S11307008983BE016F5F7F4F80EA99E031D481E035
S113071080936606E0EAF9E0818185FFFDCF1092BF
S1130720A009E0EAF9E0818186FFFDCFE0EAF9E083
S113073080E481838081BE016F5F7F4F80EA99E00E
S11307402DD48BE28983BE016F5F7F4F80EA99E0ED
S11307500FD481E080936606E0EAF9E0818185FFA9
S1130760FDCF81E28093A009E0EAF9E0818186FF70
S1130770FDCFE0EAF9E080E481838081BE016F5F10
S11307807F4F80EA99E00AD48BE28983BE016F5FD0
S11307907F4F80EA99E0ECD381E080936606E0EA3B
S11307A0F9E0818185FFFDCF81E88093A009E0EA2B
S11307B0F9E0818186FFFDCFE0EAF9E080E48183FE
S11307C08081BE016F5F7F4F80EA99E0E7D38BE2BF
S11307D08983BE016F5F7F4F80EA99E0C9D381E0CE
S11307E080936606E0EAF9E0818185FFFDCF81E22E
S11307F08093A009E0EAF9E0818186FFFDCFE0EA79
S1130800F9E080E481838081BE016F5F7F4F80EADD
S113081099E0C4D38BE28983BE016F5F7F4F80EA86
S113082099E0A6D381E080936606E0EAF9E081814D
S113083085FFFDCF8FEA8093A009E0EAF9E081818A
S113084086FFFDCFE0EAF9E080E481838081BE0188
S11308506F5F7F4F80EA99E0A1D30F90DF91CF9132
S11308601F910F91FF90EF90DF90CF90BF9008956C
S1130870FF920F931F93CF93DF931F92CDB7DEB7F1
S1130880082FF62E142FA5D30F70006B8BE28983EB
S1130890BE016F5F7F4F80EA99E06AD381E0809365
S11308A06606E0EAF9E0918195FFFDCF0093A00987
S11308B0E0EAF9E0818186FFFDCFE0EAF9E080E437
S11308C081838081BE016F5F7F4F80EA99E066D3A8
S11308D00F2D0F7702950F7000618BE28983BE01A3
S11308E06F5F7F4F80EA99E043D381E0809366068F
S11308F0E0EAF9E0818185FFFDCF0093A009E0EAF9
S1130900F9E0818186FFFDCFE0EAF9E080E48183AC
S11309108081BE016F5F7F4F80EA99E03FD30F2D46
S11309200F708BE28983BE016F5F7F4F80EA99E08D
S11309301FD381E080936606E0EAF9E0818185FFB8
S1130940FDCF0093A009E0EAF9E0818186FFFDCFA5
S1130950E0EAF9E080E481838081BE016F5F7F4F2C
S113096080EA99E01BD38BE28983BE016F5F7F4FDE
S113097080EA99E0FDD281E080936506E0EAF9E03F
S1130980818185FFFDCF1093A009E0EAF9E0818120
S113099086FFFDCFE0EAF9E080E48183808181E095
S11309A080936606BE016F5F7F4F80EA99E0F6D2BE
S11309B00F90DF91CF911F910F91FF9008950F93A6
S11309C01F93CF93DF931F92CDB7DEB782E690E2F9
S11309D0FBD28ADD8BE28983BE016F5F7F4F80EAA1
S11309E099E0C6D281E080936606E0EAF9E081816D
S11309F085FFFDCF80E48093A009E0EAF9E08181DE
S1130A0086FFFDCFE0EAF9E080E481838081BE01C6
S1130A106F5F7F4F80EA99E0C1D200E00AC040E0F6
S1130A20612F802F25DF1F5F1038C9F70F5F043057
S1130A3011F010E0F4CF0F90DF91CF911F910F913F
S1130A400895FF920F931F93CF93DF9388234CF164
S1130A50603238F5D42FC82FF62EF694F694F69417
S1130A6070E088E0F89E60197109112481E090E03B
S1130A708C0102C0000F111F6A95E2F76C2F8F2DB5
S1130A80B6D2D13021F028F0D23031F006C0802B1C
S1130A9004C00095802301C08027482F6C2F8F2D20
S1130AA0E7DEDF91CF911F910F91FF9008959FC2D0
S1130AB00895CF92DF92EF92FF920F931F93CF93FB
S1130AC0DF93EC01D901C801B695A7959795879551
S1130AD0481759076A077B0778F46A017B01CC0C35
S1130AE0DD1CEE1CFF1CC901B801A70196010E9480
S1130AF0E1122150310902C020E030E0832F8F70D1
S1130B008F832E83DF91CF911F910F91FF90EF90F0
S1130B10DF90CF900895DF92EF92FF920F931F938F
S1130B20CF93DF931F92CDB7DEB77C018B01009783
S1130B3009F4B2C1803C910521F460E180E0F1D276
S1130B40ABC180E8E81681E0F80621F462E080E0B9
S1130B50E8D2A2C1E114E1E0FE0621F461E080E004
S1130B60E0D29AC1F0E8EF16F3E0FF0621F461E069
S1130B7081E0D7D291C130E9E31633E0F30621F4E2
S1130B8061E082E0CED288C1E11482E0F80621F46B
S1130B9062E081E0C6D280C1E0E4EE16E2E0FE0647
S1130BA021F462E082E0BDD277C1F0E2EF16F3E017
S1130BB0FF0621F464E082E0B4D26EC1E11438E0AF
S1130BC0F30621F461E083E0ACD266C1E11489E06C
S1130BD0F80621F461E084E0A4D25EC1E114EAE005
S1130BE0FE0621F461E085E09CD256C1E114FBE0ED
S1130BF0FF0621F461E086E094D24EC130E4E316AE
S1130C0038E0F30621F462E083E08BD245C180E44E
S1130C10E81689E0F80621F462E084E082D23CC15F
S1130C20E0E4EE16EAE0FE0621F462E085E079D223
S1130C3033C1F0E9EF16F8E0FF0621F464E083E045
S1130C4070D22AC130E9E31639E0F30621F464E0F6
S1130C5084E067D221C180E9E8168AE0F80621F42D
S1130C6064E085E05ED218C1E0E9EE16EBE0FE0632
S1130C7021F464E086E055D20FC1F0ECEF16F8E001
S1130C80FF0621F468E083E04CD206C130ECE316A1
S1130C9039E0F30621F468E084E043D2FDC080EA41
S1130CA0E81688E0F80661F460E183E03AD2E0EA0D
S1130CB0F8E084818F7E8483F801248122504CC023
S1130CC0F0EAEF16F9E0FF0621F460E184E029D2AE
S1130CD0E3C030EAE3163AE0F30621F460E185E08C
S1130CE020D2DAC080EAE8168BE0F80621F460E14D
S1130CF086E017D2D1C0E0EBEE16E8E0FE0621F460
S1130D0060E283E00ED2C8C0F0EBEF16F9E0FF0614
S1130D1021F460E284E005D2BFC030E8E31634E099
S1130D20F30621F460E483E0FCD1B6C080EAE8165F
S1130D3084E0F80621F460E485E0F3D1ADC0F70166
S1130D4084818F7E8483FB0124812250C701F0EAD1
S1130D50EF16F8E0FF0649F480914E0684FDA5C025
S1130D600F2EF1E1DF2EF02DA4C0803B38E0930775
S1130D7091F0803AE9E09E0749F430916E0634FD23
S1130D809BC00F2EF9E1DF2EF02D16C0803BF9E059
S1130D909F07F1F004C00F2EF5E1DF2EF02D803A0D
S1130DA03AE0930749F480918E0684FD8AC00F2EA1
S1130DB0F1E2DF2EF02D15C0803A9B4091F4809132
S1130DC0AE0684FD0AC00F2EF9E2DF2EF02D09C015
S1130DD00F2EFDE1DF2EF02D04C00F2EFDE2DF2EDD
S1130DE0F02DED2DE695E695E69530E2E39FF001D2
S1130DF01124FA5F3D2D377081E090E0032E02C08C
S1130E00880F991F0A94E2F78183223010F040E0A2
S1130E1001C040E4DF015096A30FB11D9FB7998331
S1130E20F89439812C9127702C939C91942B9C934A
S1130E303FBF8583F7018581806C8583F8018481B8
S1130E408D7F813029F4F70185818260858304C018
S1130E50F70185818D7F8583F8018581882329F0B9
S1130E60F70185818460858304C0F70185818B7FC8
S1130E708583F801408151816281738100E814E81F
S1130E802EE130E0C70115DEF70184818860848398
S1130E908481806184831AC0F70184818F7E848376
S1130EA0F80124812250C70160CF0F2EF5E1DF2E17
S1130EB0F02D80EA98E06ACF0F2EFDE1DF2EF02DB1
S1130EC07BCF0F2EF5E2DF2EF02D8BCF0F90DF912D
S1130ED0CF911F910F91FF90EF90DF900895803A8A
S1130EE028E0920721F460E183E01BC10895803B70
S1130EF028E0920721F460E283E013C10895803A68
S1130F0029E0920721F460E184E00BC10895803B5D
S1130F1029E0920721F460E284E003C10895803A55
S1130F202AE0920721F460E185E0FBC00895803A4D
S1130F309B4019F460E186E0F4C008950F931F9379
S1130F40CF93DF9300D000D0CDB7DEB709831A83E7
S1130F502B833C834D831E82BE016F5F7F4FDBDD9D
S1130F602696CDBFDEBFDF91CF911F910F910895DB
S1130F70FB018081E82FE695E695E69540E2E49F43
S1130F80F0011124FA5F877021E030E0A90102C06A
S1130F90440F551F8A95E2F746830895FB0180812B
S1130FA0E82FE695E695E69540E2E49FF0011124EA
S1130FB0FA5F877021E030E0A90102C0440F551F99
S1130FC08A95E2F745830895809362229093632281
S1130FD00895209162223091632290E8899F200D28
S1130FE0311D1124F901E60FF11D4083089520916C
S1130FF062223091632290E8899F200D311D1124D3
S1131000F901E60FF11D80810895FF920F931F935C
S1131010CF93DF93E42FF0E0E80FF11DE138F10501
S11310201CF0C0E84C2F481B442309F44AC0D62FB7
S1131030D695D695D69570E098E0D99F6019710938
S11310401124E1E0F0E0DF0102C0AA0FBB1F6A95A2
S1131050E2F7FA2E213021F098F0223019F131C054
S1131060C42F1FEF180F012F0C0F602F8D2F1FDDC2
S11310704F2D482B602F8D2FFBDBC150A1F721C0D2
S1131080C42F1FEF180FFA2EF094012F0C0F602FAE
S11310908D2F0DDD4F2D4823602F8D2FE9DBC1509F
S11310A0A1F70FC0C42F1FEF180F012F0C0F602FD3
S11310B08D2FFDDC4F2D4827602F8D2FD9DBC1509C
S11310C0A1F7DF91CF911F910F91FF900895FF92A7
S11310D00F931F93CF93DF93222369F0F42E182FDD
S11310E0C22FDFEFD60F6D2F6C0F202F4F2D812FC6
S11310F08CDFC150C1F7DF91CF911F910F91FF9009
S113110008958FEF80937000809371008093720034
S113111080937300809374008093750080937600AD
S11311200895CF93DF931F92CDB7DEB79FB799830E
S1131130F8949981E82FF0E0E059FF4F60958081A1
S1131140682360839FBF0F90DF91CF9108951F9212
S11311500F920FB60F9211240BB60F922F933F9359
S11311604F935F936F937F938F939F93AF93BF93AB
S1131170EF93FF93E091AA22F091AB22309709F00C
S11311801995FF91EF91BF91AF919F918F917F91AD
S11311906F915F914F913F912F910F900BBE0F90E4
S11311A00FBE0F901F9018951F920F920FB60F92BB
S11311B011240BB60F922F933F934F935F936F932A
S11311C07F938F939F93AF93BF93EF93FF93E0919C
S11311D0A822F091A922309709F01995FF91EF9177
S11311E0BF91AF919F918F917F916F915F914F913B
S11311F03F912F910F900BBE0F900FBE0F901F9039
S113120018951F920F920FB60F9211240BB60F92DE
S11312102F933F934F935F936F937F938F939F93FA
S1131220AF93BF93EF93FF93E091A622F091A7228F
S1131230309709F01995FF91EF91BF91AF919F916C
S11312408F917F916F915F914F913F912F910F906B
S11312500BBE0F900FBE0F901F9018951F920F9208
S11312600FB60F9211240BB60F922F933F934F9307
S11312705F936F937F938F939F93AF93BF93EF93FA
S1131280FF93E091A422F091A522309709F01995DB
S1131290FF91EF91BF91AF919F918F917F916F914A
S11312A05F914F913F912F910F900BBE0F900FBE06
S11312B00F901F9018951F920F920FB60F92112442
S11312C00BB60F922F933F934F935F936F937F933C
S11312D08F939F93AF93BF93EF93FF93E091A222D9
S11312E0F091A322309709F01995FF91EF91BF91E6
S11312F0AF919F918F917F916F915F914F913F91AA
S11313002F910F900BBE0F900FBE0F901F9018954A
S11313101F920F920FB60F9211240BB60F922F93B8
S11313203F934F935F936F937F938F939F93AF9369
S1131330BF93EF93FF93E091A022F091A122309705
S113134009F01995FF91EF91BF91AF919F918F9102
S11313507F916F915F914F913F912F910F900BBEB1
S11313600F900FBE0F901F9018951F920F920FB6FB
S11313700F9211240BB60F922F933F934F935F93C9
S11313806F937F938F939F93AF93BF93EF93FF9349
S1131390E0919E22F0919F22309709F01995FF91D8
S11313A0EF91BF91AF919F918F917F916F915F91D9
S11313B04F913F912F910F900BBE0F900FBE0F9046
S11313C01F9018951F920F920FB60F9211240BB60F
S11313D00F922F933F934F935F936F937F938F93CA
S11313E09F93AF93BF93EF93FF93E0919C22F0916F
S11313F09D22309709F01995FF91EF91BF91AF911C
S11314009F918F917F916F915F914F913F912F9118
S11314100F900BBE0F900FBE0F901F9018951F9248
S11314200F920FB60F9211240BB60F922F933F9386
S11314304F935F936F937F938F939F93AF93BF93D8
S1131440EF93FF93E0919A22F0919B22309709F059
S11314501995FF91EF91BF91AF919F918F917F91DA
S11314606F915F914F913F912F910F900BBE0F9011
S11314700FBE0F901F9018951F920F920FB60F92E8
S113148011240BB60F922F933F934F935F936F9357
S11314907F938F939F93AF93BF93EF93FF93E091C9
S11314A09822F0919922309709F01995FF91EF91C4
S11314B0BF91AF919F918F917F916F915F914F9168
S11314C03F912F910F900BBE0F900FBE0F901F9066
S11314D018951F920F920FB60F9211240BB60F920C
S11314E02F933F934F935F936F937F938F939F9328
S11314F0AF93BF93EF93FF93E0919622F0919722DD
S1131500309709F01995FF91EF91BF91AF919F9199
S11315108F917F916F915F914F913F912F910F9098
S11315200BBE0F900FBE0F901F9018951F920F9235
S11315300FB60F9211240BB60F922F933F934F9334
S11315405F936F937F938F939F93AF93BF93EF9327
S1131550FF93E0919422F0919522309709F0199528
S1131560FF91EF91BF91AF919F918F917F916F9177
S11315705F914F913F912F910F900BBE0F900FBE33
S11315800F901F9018951F920F920FB60F9211246F
S11315900BB60F922F933F934F935F936F937F9369
S11315A08F939F93AF93BF93EF93FF93E091922216
S11315B0F0919322309709F01995FF91EF91BF9123
S11315C0AF919F918F917F916F915F914F913F91D7
S11315D02F910F900BBE0F900FBE0F901F90189578
S11315E01F920F920FB60F9211240BB60F922F93E6
S11315F03F934F935F936F937F938F939F93AF9397
S1131600BF93EF93FF93E0919022F0919122309752
S113161009F01995FF91EF91BF91AF919F918F912F
S11316207F916F915F914F913F912F910F900BBEDE
S11316300F900FBE0F901F9018951F920F920FB628
S11316400F9211240BB60F922F933F934F935F93F6
S11316506F937F938F939F93AF93BF93EF93FF9376
S1131660E0918E22F0918F22309709F01995FF9125
S1131670EF91BF91AF919F918F917F916F915F9106
S11316804F913F912F910F900BBE0F900FBE0F9073
S11316901F9018951F920F920FB60F9211240BB63C
S11316A00F922F933F934F935F936F937F938F93F7
S11316B09F93AF93BF93EF93FF93E0918C22F091AC
S11316C08D22309709F01995FF91EF91BF91AF9159
S11316D09F918F917F916F915F914F913F912F9146
S11316E00F900BBE0F900FBE0F901F9018951F9276
S11316F00F920FB60F9211240BB60F922F933F93B4
S11317004F935F936F937F938F939F93AF93BF9305
S1131710EF93FF93E0918A22F0918B22309709F0A6
S11317201995FF91EF91BF91AF919F918F917F9107
S11317306F915F914F913F912F910F900BBE0F903E
S11317400FBE0F901F9018951F920F920FB60F9215
S113175011240BB60F922F933F934F935F936F9384
S11317607F938F939F93AF93BF93EF93FF93E091F6
S11317708822F0918922309709F01995FF91EF9111
S1131780BF91AF919F918F917F916F915F914F9195
S11317903F912F910F900BBE0F900FBE0F901F9093
S11317A018951F920F920FB60F9211240BB60F9239
S11317B02F933F934F935F936F937F938F939F9355
S11317C0AF93BF93EF93FF93E0918622F09187222A
S11317D0309709F01995FF91EF91BF91AF919F91C7
S11317E08F917F916F915F914F913F912F910F90C6
S11317F00BBE0F900FBE0F901F9018951F920F9263
S11318000FB60F9211240BB60F922F933F934F9361
S11318105F936F937F938F939F93AF93BF93EF9354
S1131820FF93E0918422F0918522309709F0199575
S1131830FF91EF91BF91AF919F918F917F916F91A4
S11318405F914F913F912F910F900BBE0F900FBE60
S11318500F901F9018951F920F920FB60F9211249C
S11318600BB60F922F933F934F935F936F937F9396
S11318708F939F93AF93BF93EF93FF93E091822253
S1131880F0918322309709F01995FF91EF91BF9160
S1131890AF919F918F917F916F915F914F913F9104
S11318A02F910F900BBE0F900FBE0F901F901895A5
S11318B01F920F920FB60F9211240BB60F922F9313
S11318C03F934F935F936F937F938F939F93AF93C4
S11318D0BF93EF93FF93E0918022F09181223097A0
S11318E009F01995FF91EF91BF91AF919F918F915D
S11318F07F916F915F914F913F912F910F900BBE0C
S11319000F900FBE0F901F9018951F920F920FB655
S11319100F9211240BB60F922F933F934F935F9323
S11319206F937F938F939F93AF93BF93EF93FF93A3
S1131930E0917E22F0917F22309709F01995FF9172
S1131940EF91BF91AF919F918F917F916F915F9133
S11319504F913F912F910F900BBE0F900FBE0F90A0
S11319601F9018951F920F920FB60F9211240BB669
S11319700F922F933F934F935F936F937F938F9324
S11319809F93AF93BF93EF93FF93E0917C22F091E9
S11319907D22309709F01995FF91EF91BF91AF9196
S11319A09F918F917F916F915F914F913F912F9173
S11319B00F900BBE0F900FBE0F901F9018951F92A3
S11319C00F920FB60F9211240BB60F922F933F93E1
S11319D04F935F936F937F938F939F93AF93BF9333
S11319E0EF93FF93E0917A22F0917B22309709F0F4
S11319F01995FF91EF91BF91AF919F918F917F9135
S1131A006F915F914F913F912F910F900BBE0F906B
S1131A100FBE0F901F9018951F920F920FB60F9242
S1131A2011240BB60F922F933F934F935F936F93B1
S1131A307F938F939F93AF93BF93EF93FF93E09123
S1131A407822F0917922309709F01995FF91EF915E
S1131A50BF91AF919F918F917F916F915F914F91C2
S1131A603F912F910F900BBE0F900FBE0F901F90C0
S1131A7018951F920F920FB60F9211240BB60F9266
S1131A802F933F934F935F936F937F938F939F9382
S1131A90AF93BF93EF93FF93E0917622F091772277
S1131AA0309709F01995FF91EF91BF91AF919F91F4
S1131AB08F917F916F915F914F913F912F910F90F3
S1131AC00BBE0F900FBE0F901F9018951F920F9290
S1131AD00FB60F9211240BB60F922F933F934F938F
S1131AE05F936F937F938F939F93AF93BF93EF9382
S1131AF0FF93E0917422F0917522309709F01995C3
S1131B00FF91EF91BF91AF919F918F917F916F91D1
S1131B105F914F913F912F910F900BBE0F900FBE8D
S1131B200F901F9018951F920F920FB60F921124C9
S1131B300BB60F922F933F934F935F936F937F93C3
S1131B408F939F93AF93BF93EF93FF93E091722290
S1131B50F0917322309709F01995FF91EF91BF919D
S1131B60AF919F918F917F916F915F914F913F9131
S1131B702F910F900BBE0F900FBE0F901F901895D2
S1131B801F920F920FB60F9211240BB60F922F9340
S1131B903F934F935F936F937F938F939F93AF93F1
S1131BA0BF93EF93FF93E0917022F09171223097ED
S1131BB009F01995FF91EF91BF91AF919F918F918A
S1131BC07F916F915F914F913F912F910F900BBE39
S1131BD00F900FBE0F901F9018951F920F920FB683
S1131BE00F9211240BB60F922F933F934F935F9351
S1131BF06F937F938F939F93AF93BF93EF93FF93D1
S1131C00E0916E22F0916F22309709F01995FF91BF
S1131C10EF91BF91AF919F918F917F916F915F9160
S1131C204F913F912F910F900BBE0F900FBE0F90CD
S1131C301F9018951F920F920FB60F9211240BB696
S1131C400F922F933F934F935F936F937F938F9351
S1131C509F93AF93BF93EF93FF93E0916C22F09126
S1131C606D22309709F01995FF91EF91BF91AF91D3
S1131C709F918F917F916F915F914F913F912F91A0
S1131C800F900BBE0F900FBE0F901F9018951F92D0
S1131C900F920FB60F9211240BB60F922F933F930E
S1131CA04F935F936F937F938F939F93AF93BF9360
S1131CB0EF93FF93E0916A22F0916B22309709F041
S1131CC01995FF91EF91BF91AF919F918F917F9162
S1131CD06F915F914F913F912F910F900BBE0F9099
S1131CE00FBE0F901F9018951F920F920FB60F9270
S1131CF011240BB60F922F933F934F935F936F93DF
S1131D007F938F939F93AF93BF93EF93FF93E09150
S1131D106822F0916922309709F01995FF91EF91AB
S1131D20BF91AF919F918F917F916F915F914F91EF
S1131D303F912F910F900BBE0F900FBE0F901F90ED
S1131D4018951F920F920FB60F9211240BB60F9293
S1131D502F933F934F935F936F937F938F939F93AF
S1131D60AF93BF93EF93FF93E0916622F0916722C4
S1131D70309709F01995FF91EF91BF91AF919F9121
S1131D808F917F916F915F914F913F912F910F9020
S1131D900BBE0F900FBE0F901F9018951F920F92BD
S1131DA00FB60F9211240BB60F922F933F934F93BC
S1131DB05F936F937F938F939F93AF93BF93EF93AF
S1131DC0FF93E0916422F0916522309709F0199510
S1131DD0FF91EF91BF91AF919F918F917F916F91FF
S1131DE05F914F913F912F910F900BBE0F900FBEBB
S1131DF00F901F9018951F93CF93DF931F921F92FC
S1131E00CDB7DEB72FB72A83F8941A81282F392F3C
S1131E10211588E0380739F461E083E082D964E071
S1131E2083E07FD943C0203488E0380739F462E086
S1131E3083E077D964E083E074D938C0211589E060
S1131E40380739F461E084E06CD964E084E069D94E
S1131E502DC0203489E0380739F462E084E061D988
S1131E6064E084E05ED922C021158AE0380739F4A1
S1131E7061E085E056D964E085E053D917C0203489
S1131E808AE0380739F462E085E04BD964E085E004
S1131E9048D90CC021153B4039F461E086E041D9B2
S1131EA064E086E03ED902C01FBF10C08091F923D0
S1131EB08F3F09F4FFCF8FB78983F8949981E8EFB6
S1131EC0F3E281818F5F81839FBF1FBF0F900F90CB
S1131ED0DF91CF911F910895811528E0920729F48D
S1131EE06093AA227093AB220895803428E092076D
S1131EF029F460939E2270939F220895811529E00E
S1131F00920729F46093962270939722089580345F
S1131F1029E0920729F460938A2270938B22089512
S1131F2081152AE0920729F4609382227093832218
S1131F30089580342AE0920729F4609376227093FE
S1131F407722089581159B4021F460936E2270934B
S1131F506F220895AF92BF92CF92DF92EF92FF92D9
S1131F600F931F93CF93DF93C82FE62EB42E6901EE
S1131F7000E0F901248143816B2D8E2DA8D8F60150
S1131F80808181113AC08381282F26952695269534
S1131F90877009F02F5FF601A4808C2F90E03581C3
S1131FA0831B91092A9D90011124829FA001839F84
S1131FB0500D929F500D112401811281040F151FA1
S1131FC0F601F380FF20A9F0D0E0C0E08E2D8C0F45
S1131FD09C2F977021F4F801D4910F5F1F4FDD23DC
S1131FE024F441E06B2D0E942105DD0FCF5FFC122C
S1131FF0EDCFB394AA94A110E3CFDF91CF911F91B9
S11320000F91FF90EF90DF90CF90BF90AF90089525
S1132010DF92EF92FF920F931F93CF93DF93D62E0D
S1132020042F7901EC01162F89918A3031F4F701DC
S113203084818F5F080F1D2D09C08D3039F0970101
S1132040402F612F87DFF7018381180F8881811169
S1132050EBCFDF91CF911F910F91FF90EF90DF9025
S11320600895CF93DF93FC0120E030E0C62FD0E049
S1132070DE01022E02C0B595A7950A94E2F7A0FDF1
S1132080508B2F5F3F4F31962830310589F740FF41
S11320900AC041FF03C0FC01658302C0FC016683E2
S11320A0FC01618302C0FC016283DF91CF9108953A
S11320B043E050E061E080EE97E0D3DF43E050E09E
S11320C062E080EE97E0CDDF43E050E060E180E63F
S11320D096E0C7DF41E050E460E280E696E0C1DFCD
S11320E040E05BE160E280E896E0BBDF40E05BE17A
S11320F062E080EA96E0B5DF40E05BE164E080EA1C
S113210096E0AFDF43E050E062E080E696E0A9DFCE
S113211043E050E068E080E696E0A3DF43E050E06F
S113212068E080EA96E09DDF43E050E061E080E60D
S113213096E097DF43E050E068E080E096E091DFCE
S113214041E050E060E180E896E08BDF43E050E05E
S113215062E080E696E085DF43E050E068E080E6F8
S113216096E07FDF40E050E064E080E696E079DFCF
S113217043E050E060E180EA96E073DF40E050E045
S113218061E080E096E06DDF40E050E064E080E0F4
S113219096E067DF40E050E062E080E296E061DFD5
S11321A043E050E068E080E496E05BDF40E050E02C
S11321B064E080E496E055DF43E050E068E080E6C8
S11321C096E04FDF40E050E064E080E696E049DFCF
S11321D043E050E068E080E896E043DF40E050E010
S11321E064E080E896E03DCF089504C06150710931
S11321F0810991096115710581059105B9F7089562
S11322008091F4239091F52301968093F423909385
S1132210F523089580E098E0EEDD60E071E180E070
S113222098E05ADEE0E0F8E08181887F81838AE3E8
S113223090E086A397A386818C7F868386818360C2
S113224086838081807F816080830895CF93DF932C
S11322501F921F92CDB7DEB72BDF0E94810887E063
S11322608093A2000E94DF0480E18093850664E0ED
S113227080E00E949108E0E2F4E0818180FDFDCFDE
S113228066E176E185E090E0B0DFC4DF20E030E293
S113229040E060E087E090E2BBDEE0E4F6E081E06D
S11322A081838FEF80831482E0E8F6E0808380EFFF
S11322B0848300E010E00F2EF3E26F2EF0E27F2E15
S11322C0F02D0F2EFCEAAF2EF2E2BF2EF02DA982E4
S11322D0BA8202C000E010E00115110509F0C9C07E
S11322E00F2EFAE0EF2EF12CF02D6894222427F81B
S11322F00F2EFBE08F2E912CF02D33243A9467EAB5
S113230070E080E090E071DF21EF2093840620E00C
S113231030E248E060E086E190E27ADEFF92EF92FC
S11323207F926F921F922F92BF92AF926CD120E056
S113233030E240E160E089819A816ADE66E372E816
S113234080E090E052DF24014E185F08E0E2F6E0FE
S11323503082109224063092240662E070E080E01D
S113236090E043DF10922406E0E2F6E010826BEF87
S113237070E080E090E039DFC090F423D090F52342
S113238067E270E080E090E030DF7894CDBFDEBF9C
S11323908091280680FDFCCF8091F4239091F52351
S11323A0F8942091F4233091F523253631056CF10E
S11323B084E690E08093F6239093F7231F9294E6AB
S11323C09F93E7E3F0E2FF93EF931F9288EC8F93E0
S11323D08CE293E29F938F9316D120E030E248E1A0
S11323E060E08CE293E214DE66E372E880E090E061
S11323F0FCDE1092F4231092F523F1E0EF1AF108B9
S1132400CDBFDEBF09F07BCF2AC08C199D099C018A
S113241012F42F5F3F4F359527953F932F9387E312
S113242090E29F938F931F9288EC8F938CE293E2B8
S11324309F938F93E8D020E030E248E160E08CE2A3
S113244093E2E6DD66E372E880E090E0CEDE10928F
S1132450F4231092F523CDBFDEBF01E010E09AE033
S11324604916510409F038CF1092440601E010E0F7
S113247033CF0130110509F052C000E010E00F2EF7
S1132480F2EFEF2EF02D6894FF24F7F8D980CA807C
S113249067EA70E080E090E0A8DEE092840620E045
S11324A030E248E060E088E490E2B2DD83E090E06E
S11324B0801B910B9F938F937F926F921F92FF9239
S11324C0BF92AF92A0D020E030E240E160E08D2DD9
S11324D09C2D9EDD66E372E880E090E086DE0F5F6F
S11324E01F4F80918806CDBFDEBF85FD11C0E0E49B
S11324F0F6E081E08183848367EA70E080E090E025
S113250074DE0330110509F0E5CE02E010E0E4CEFC
S11325100330110509F0BCCF02E010E0DDCE02303B
S1132520110509F0D9CE00E010E00F2EF4EFEF2EE4
S1132530F02D6894FF24F7F8D980CA8067EA70E028
S113254080E090E052DEE092840620E030E248E051
S113255060E085E590E25CDD85E090E0801B910B16
S11325609F938F937F926F921F92FF92BF92AF922D
S11325704AD020E030E240E160E08D2D9C2D48DD22
S113258066E372E880E090E030DE0F5F1F4F8091D9
S11325908806CDBFDEBF85FD0DC0E0E4F6E081E036
S11325A08183848367EA70E080E090E01EDE00E0CF
S11325B010E092CE0530110509F0C0CF00E010E024
S11325C08BCEA1E21A2EAA1BBB1BFD010DC0AA1FB4
S11325D0BB1FEE1FFF1FA217B307E407F50720F088
S11325E0A21BB30BE40BF50B661F771F881F991F03
S11325F01A9469F760957095809590959B01AC014C
S1132600BD01CF0108950F931F93CF93DF93CDB7EF
S1132610DEB72E97CDBFDEBF0E891F89888D998DB9
S113262026E02C8309831A8397FF02C080E090E898
S113263001978D839E83AE01445E5F4F6A8D7B8DCF
S1132640CE01019616D04D815E8157FD0AC02F81BF
S11326503885421753070CF49A01F801E20FF31F6F
S113266010822E96CDBFDEBFDF91CF911F910F91C7
S113267008952F923F924F925F926F927F928F9222
S11326809F92AF92BF92CF92DF92EF92FF920F93FD
S11326901F93CF93DF93CDB7DEB72B97CDBFDEBFAC
S11326A06C017B018A01FC0116821782838181FF00
S11326B0BFC1CE0101963C01F6019381F70193FD60
S11326C0859193FF81917F01882309F4ADC18532FF
S11326D039F493FD859193FF81917F01853221F433
S11326E0B60190E0D3D1E8CF912C212C312CFFE11D
S11326F0F315D8F08B3279F038F4803279F08332E4
S1132700A1F4232D20611DC08D3261F0803369F462
S1132710232D216016C0832D8260382EE32DE460C2
S11327203E2E2AC0F32DF8601DC037FC2DC020EDCD
S1132730280F2A3040F08E32B9F436FC75C1232DAF
S11327402064322E19C036FE06C08AE0989E200D01
S11327501124922E11C0EAE02E9E200D1124222E67
S1132760F32DF0623F2E08C08C3621F4832D80684F
S1132770382E02C0883641F4F70193FD859193FF0A
S113278081917F018111B3CF982F9F7D9554933010
S113279028F40C5F1F4F9FE399830DC0833631F0FB
S11327A0833771F0833509F055C020C0F80180816A
S11327B089830E5F1F4F88248394912C530112C088
S11327C02801F2E04F0E511CF801A080B18036FEC2
S11327D003C0692D70E002C06FEF7FEFC5014BD1DC
S11327E04C018201F32DFF773F2E15C0280122E012
S11327F0420E511CF801A080B18036FE03C0692D41
S113280070E002C06FEF7FEFC5012AD14C01F32DB8
S1132810F0683F2E820133FC19C0822D90E08816A7
S11328209906A0F4B60180E290E030D12A94F5CF65
S1132830F50137FC859137FE81915F01B60190E087
S113284025D121102A9421E0821A9108811491043F
S113285079F7E1C0843611F0893639F5F80137FE8D
S113286007C060817181828193810C5F1F4F08C012
S113287060817181072E000C880B990B0E5F1F4F2E
S1132880F32DFF763F2E97FF09C0909580957095A4
S113289061957F4F8F4F9F4FF0683F2E2AE030E0C5
S11328A0A30130D1882E861844C0853731F4232DF6
S11328B02F7EB22E2AE030E025C0932D997FB92EC9
S11328C08F36C1F018F4883579F0AEC0803719F02E
S11328D0883721F0A9C0E92FE061BE2EB4FE0DC0F7
S11328E0FB2DF460BF2E09C034FE0AC0292F2660D8
S11328F0B22E06C028E030E005C020E130E002C07E
S113290020E132E0F801B7FE07C060817181828165
S113291093810C5F1F4F06C06081718180E090E05D
S11329200E5F1F4FA301EED0882E8618FB2DFF7774
S11329303F2E36FE0DC0232D2E7FA22E891458F46F
S113294034FE0BC032FC09C0832D8E7EA82E05C038
S1132950B82CA32C03C0B82C01C0B92CA4FE0FC002
S1132960FE01E80DF11D8081803321F49A2D997EBA
S1132970A92E09C0A2FE06C0B394B39404C08A2D44
S1132980867809F0B394A3FC10C0A0FE06C0B2146C
S113299080F4280C922C9B180DC0B21458F4B60184
S11329A080E290E073D0B394F8CFB21418F42B18EB
S11329B002C0982C212CA4FE0FC0B60180E390E045
S11329C065D0A2FE16C0A1FC03C088E790E002C057
S11329D088E590E0B6010CC08A2D867851F0A1FEFE
S11329E002C08BE201C080E2A7FC8DE2B60190E058
S11329F04DD0891430F4B60180E390E047D09A9426
S1132A00F8CF8A94F301E80DF11D8081B60190E0BE
S1132A103DD08110F6CF222009F44ECEB60180E2DB
S1132A2090E034D02A94F7CFF6018681978102C0D2
S1132A308FEF9FEF2B96CDBFDEBFDF91CF911F911C
S1132A400F91FF90EF90DF90CF90BF90AF909F9049
S1132A508F907F906F905F904F903F902F9008954C
S1132A60FC010590615070400110D8F78095909555
S1132A708E0F9F1F0895FC0161507040019001105A
S1132A80D8F7809590958E0F9F1F08950F931F93ED
S1132A90CF93DF93FB01238121FD03C08FEF9FEFD1
S1132AA02CC022FF16C046815781248135814217EC
S1132AB0530744F4A081B1819D012F5F3F4F2083D0
S1132AC031838C93268137812F5F3F4F2683378351
S1132AD014C08B01EC01FB010084F185E02D1995F4
S1132AE0892BE1F6D80116968D919C911797019642
S1132AF016968D939C931797CE01DF91CF911F91DA
S1132B000F910895FA01AA27283051F1203181F15B
S1132B10E8946F936E7F6E5F7F4F8F4F9F4FAF4FE1
S1132B20B1E03ED0B4E03CD0670F781F891F9A1FF4
S1132B30A11D680F791F8A1F911DA11D6A0F711DA8
S1132B40811D911DA11D20D009F468943F912AE0B4
S1132B50269F11243019305D3193DEF6CF0108959C
S1132B60462F4770405D4193B3E00FD0C9F7F6CFCD
S1132B70462F4F70405D4A3318F0495D31FD405295
S1132B80419302D0A9F7EACFB4E0A695979587952B
S1132B9077956795BA95C9F700976105710508950A
S1132BA09B01AC010A2E06945795479537952795B6
S1132BB0BA95C9F7620F731F841F951FA01D08954E
S1072BC0F894FFCFB3
S1132BC400FC010607207D44617269616E204A6F2E
S1132BD47368756120004C616D7075204D65726178
S1132BE4682000436F756E746572203A202533643F
S1132BF420446574696B0050616E6A616E673A20A3
S1132C04256420636D2020004C616D7075204B7524
S1132C146E696E67004C616D70752048696A6175F0
S1052C2420008A
S9030000FC
