Archive member included to satisfy reference by file (symbol)

c:/program files (x86)/atmel/studio/7.0/toolchain/avr8/avr8-gnu-toolchain/bin/../lib/gcc/avr/5.4.0/avrxmega6\libgcc.a(_udivmodsi4.o)
                              src/ASF/xmega/drivers/usart/usart.o (__udivmodsi4)
c:/program files (x86)/atmel/studio/7.0/toolchain/avr8/avr8-gnu-toolchain/bin/../lib/gcc/avr/5.4.0/avrxmega6\libgcc.a(_exit.o)
                              C:/Program Files (x86)/Atmel/Studio/7.0/Packs/atmel/XMEGAA_DFP/1.3.146/gcc/dev/atxmega256a3bu/avrxmega6/crtatxmega256a3bu.o (exit)
c:/program files (x86)/atmel/studio/7.0/toolchain/avr8/avr8-gnu-toolchain/bin/../lib/gcc/avr/5.4.0/avrxmega6\libgcc.a(_copy_data.o)
                              src/ASF/common/services/sleepmgr/xmega/sleepmgr.o (__do_copy_data)
c:/program files (x86)/atmel/studio/7.0/toolchain/avr8/avr8-gnu-toolchain/bin/../lib/gcc/avr/5.4.0/avrxmega6\libgcc.a(_clear_bss.o)
                              src/ASF/common/services/gfx_mono/gfx_mono_c12832_a1z.o (__do_clear_bss)
c:/program files (x86)/atmel/studio/7.0/toolchain/avr8/avr8-gnu-toolchain/bin/../lib/gcc/avr/5.4.0/../../../../avr/lib/avrxmega6\libc.a(memcpy.o)
                              src/ASF/xmega/drivers/nvm/nvm.o (memcpy)
c:/program files (x86)/atmel/studio/7.0/toolchain/avr8/avr8-gnu-toolchain/bin/../lib/gcc/avr/5.4.0/../../../../avr/lib/avrxmega6\libc.a(snprintf.o)
                              src/main.o (snprintf)
c:/program files (x86)/atmel/studio/7.0/toolchain/avr8/avr8-gnu-toolchain/bin/../lib/gcc/avr/5.4.0/../../../../avr/lib/avrxmega6\libc.a(vfprintf_std.o)
                              c:/program files (x86)/atmel/studio/7.0/toolchain/avr8/avr8-gnu-toolchain/bin/../lib/gcc/avr/5.4.0/../../../../avr/lib/avrxmega6\libc.a(snprintf.o) (vfprintf)
c:/program files (x86)/atmel/studio/7.0/toolchain/avr8/avr8-gnu-toolchain/bin/../lib/gcc/avr/5.4.0/../../../../avr/lib/avrxmega6\libc.a(strnlen_P.o)
                              c:/program files (x86)/atmel/studio/7.0/toolchain/avr8/avr8-gnu-toolchain/bin/../lib/gcc/avr/5.4.0/../../../../avr/lib/avrxmega6\libc.a(vfprintf_std.o) (strnlen_P)
c:/program files (x86)/atmel/studio/7.0/toolchain/avr8/avr8-gnu-toolchain/bin/../lib/gcc/avr/5.4.0/../../../../avr/lib/avrxmega6\libc.a(strnlen.o)
                              c:/program files (x86)/atmel/studio/7.0/toolchain/avr8/avr8-gnu-toolchain/bin/../lib/gcc/avr/5.4.0/../../../../avr/lib/avrxmega6\libc.a(vfprintf_std.o) (strnlen)
c:/program files (x86)/atmel/studio/7.0/toolchain/avr8/avr8-gnu-toolchain/bin/../lib/gcc/avr/5.4.0/../../../../avr/lib/avrxmega6\libc.a(fputc.o)
                              c:/program files (x86)/atmel/studio/7.0/toolchain/avr8/avr8-gnu-toolchain/bin/../lib/gcc/avr/5.4.0/../../../../avr/lib/avrxmega6\libc.a(vfprintf_std.o) (fputc)
c:/program files (x86)/atmel/studio/7.0/toolchain/avr8/avr8-gnu-toolchain/bin/../lib/gcc/avr/5.4.0/../../../../avr/lib/avrxmega6\libc.a(ultoa_invert.o)
                              c:/program files (x86)/atmel/studio/7.0/toolchain/avr8/avr8-gnu-toolchain/bin/../lib/gcc/avr/5.4.0/../../../../avr/lib/avrxmega6\libc.a(vfprintf_std.o) (__ultoa_invert)

Allocating common symbols
Common symbol       size              file

sleepmgr_locks      0x6               src/ASF/common/services/sleepmgr/xmega/sleepmgr.o

Discarded input sections

 .data          0x00000000        0x0 C:/Program Files (x86)/Atmel/Studio/7.0/Packs/atmel/XMEGAA_DFP/1.3.146/gcc/dev/atxmega256a3bu/avrxmega6/crtatxmega256a3bu.o
 .bss           0x00000000        0x0 C:/Program Files (x86)/Atmel/Studio/7.0/Packs/atmel/XMEGAA_DFP/1.3.146/gcc/dev/atxmega256a3bu/avrxmega6/crtatxmega256a3bu.o
 .group         0x00000000        0x8 src/ASF/common/components/display/st7565r/st7565r.o
 .group         0x00000000        0x8 src/ASF/common/components/display/st7565r/st7565r.o
 .group         0x00000000        0x8 src/ASF/common/components/display/st7565r/st7565r.o
 .group         0x00000000        0x8 src/ASF/common/components/display/st7565r/st7565r.o
 .group         0x00000000        0x8 src/ASF/common/components/display/st7565r/st7565r.o
 .group         0x00000000        0x8 src/ASF/common/components/display/st7565r/st7565r.o
 .group         0x00000000        0x8 src/ASF/common/components/display/st7565r/st7565r.o
 .group         0x00000000        0x8 src/ASF/common/components/display/st7565r/st7565r.o
 .group         0x00000000        0x8 src/ASF/common/components/display/st7565r/st7565r.o
 .group         0x00000000        0x8 src/ASF/common/components/display/st7565r/st7565r.o
 .group         0x00000000        0x8 src/ASF/common/components/display/st7565r/st7565r.o
 .group         0x00000000        0x8 src/ASF/common/components/display/st7565r/st7565r.o
 .group         0x00000000        0x8 src/ASF/common/components/display/st7565r/st7565r.o
 .group         0x00000000        0x8 src/ASF/common/components/display/st7565r/st7565r.o
 .group         0x00000000        0x8 src/ASF/common/components/display/st7565r/st7565r.o
 .group         0x00000000        0x8 src/ASF/common/components/display/st7565r/st7565r.o
Memory Configuration

Name             Origin             Length             Attributes
text             0x00000000         0x00042000         xr
data             0x00802000         0x00004000         rw !x
eeprom           0x00810000         0x00001000         rw !x
fuse             0x00820000         0x00000006         rw !x
lock             0x00830000         0x00000400         rw !x
signature        0x00840000         0x00000400         rw !x
user_signatures  0x00850000         0x00000400         rw !x
*default*        0x00000000         0xffffffff

Linker script and memory map

LOAD C:/Program Files (x86)/Atmel/Studio/7.0/Packs/atmel/XMEGAA_DFP/1.3.146/gcc/dev/atxmega256a3bu/avrxmega6/crtatxmega256a3bu.o
LOAD src/ASF/common/components/display/st7565r/st7565r.o
LOAD src/ASF/common/services/gfx_mono/gfx_mono_c12832_a1z.o
LOAD src/ASF/xmega/drivers/usart/usart.o
LOAD src/ASF/common/services/spi/xmega_usart_spi/usart_spi.o
LOAD src/ASF/common/services/spi/xmega_spi/spi_master.o
LOAD src/ASF/common/services/sleepmgr/xmega/sleepmgr.o
LOAD src/ASF/common/services/gfx_mono/gfx_mono_framebuffer.o
LOAD src/ASF/common/services/gfx_mono/gfx_mono_generic.o
LOAD src/ASF/common/services/clock/xmega/sysclk.o
LOAD src/ASF/common/services/gfx_mono/gfx_mono_menu.o
LOAD src/ASF/xmega/drivers/nvm/nvm.o
LOAD src/ASF/xmega/drivers/spi/spi.o
LOAD src/ASF/xmega/drivers/tc/tc.o
LOAD src/ASF/xmega/drivers/nvm/nvm_asm.o
LOAD src/ASF/xmega/drivers/cpu/ccp.o
LOAD src/ASF/common/services/gfx_mono/gfx_mono_text.o
LOAD src/ASF/common/services/gfx_mono/sysfont.o
LOAD src/ASF/common/services/ioport/xmega/ioport_compat.o
LOAD src/ASF/xmega/boards/xmega_a3bu_xplained/init.o
LOAD src/main.o
START GROUP
LOAD c:/program files (x86)/atmel/studio/7.0/toolchain/avr8/avr8-gnu-toolchain/bin/../lib/gcc/avr/5.4.0/../../../../avr/lib/avrxmega6\libm.a
END GROUP
Address of section .BOOT set to 0x40000
START GROUP
LOAD c:/program files (x86)/atmel/studio/7.0/toolchain/avr8/avr8-gnu-toolchain/bin/../lib/gcc/avr/5.4.0/avrxmega6\libgcc.a
LOAD c:/program files (x86)/atmel/studio/7.0/toolchain/avr8/avr8-gnu-toolchain/bin/../lib/gcc/avr/5.4.0/../../../../avr/lib/avrxmega6\libm.a
LOAD c:/program files (x86)/atmel/studio/7.0/toolchain/avr8/avr8-gnu-toolchain/bin/../lib/gcc/avr/5.4.0/../../../../avr/lib/avrxmega6\libc.a
LOAD C:/Program Files (x86)/Atmel/Studio/7.0/Packs/atmel/XMEGAA_DFP/1.3.146/gcc/dev/atxmega256a3bu/avrxmega6\libatxmega256a3bu.a
END GROUP
                [0x00000000]                __TEXT_REGION_ORIGIN__ = DEFINED (__TEXT_REGION_ORIGIN__)?__TEXT_REGION_ORIGIN__:0x0
                [0x00802000]                __DATA_REGION_ORIGIN__ = DEFINED (__DATA_REGION_ORIGIN__)?__DATA_REGION_ORIGIN__:0x802000
                [0x00042000]                __TEXT_REGION_LENGTH__ = DEFINED (__TEXT_REGION_LENGTH__)?__TEXT_REGION_LENGTH__:0x100000
                [0x00004000]                __DATA_REGION_LENGTH__ = DEFINED (__DATA_REGION_LENGTH__)?__DATA_REGION_LENGTH__:0xffa0
                [0x00001000]                __EEPROM_REGION_LENGTH__ = DEFINED (__EEPROM_REGION_LENGTH__)?__EEPROM_REGION_LENGTH__:0x10000
                [0x00000006]                __FUSE_REGION_LENGTH__ = DEFINED (__FUSE_REGION_LENGTH__)?__FUSE_REGION_LENGTH__:0x400
                0x00000400                __LOCK_REGION_LENGTH__ = DEFINED (__LOCK_REGION_LENGTH__)?__LOCK_REGION_LENGTH__:0x400
                0x00000400                __SIGNATURE_REGION_LENGTH__ = DEFINED (__SIGNATURE_REGION_LENGTH__)?__SIGNATURE_REGION_LENGTH__:0x400
                0x00000400                __USER_SIGNATURE_REGION_LENGTH__ = DEFINED (__USER_SIGNATURE_REGION_LENGTH__)?__USER_SIGNATURE_REGION_LENGTH__:0x400

.hash
 *(.hash)

.dynsym
 *(.dynsym)

.dynstr
 *(.dynstr)

.gnu.version
 *(.gnu.version)

.gnu.version_d
 *(.gnu.version_d)

.gnu.version_r
 *(.gnu.version_r)

.rel.init
 *(.rel.init)

.rela.init
 *(.rela.init)

.rel.text
 *(.rel.text)
 *(.rel.text.*)
 *(.rel.gnu.linkonce.t*)

.rela.text
 *(.rela.text)
 *(.rela.text.*)
 *(.rela.gnu.linkonce.t*)

.rel.fini
 *(.rel.fini)

.rela.fini
 *(.rela.fini)

.rel.rodata
 *(.rel.rodata)
 *(.rel.rodata.*)
 *(.rel.gnu.linkonce.r*)

.rela.rodata
 *(.rela.rodata)
 *(.rela.rodata.*)
 *(.rela.gnu.linkonce.r*)

.rel.data
 *(.rel.data)
 *(.rel.data.*)
 *(.rel.gnu.linkonce.d*)

.rela.data
 *(.rela.data)
 *(.rela.data.*)
 *(.rela.gnu.linkonce.d*)

.rel.ctors
 *(.rel.ctors)

.rela.ctors
 *(.rela.ctors)

.rel.dtors
 *(.rel.dtors)

.rela.dtors
 *(.rela.dtors)

.rel.got
 *(.rel.got)

.rela.got
 *(.rela.got)

.rel.bss
 *(.rel.bss)

.rela.bss
 *(.rela.bss)

.rel.plt
 *(.rel.plt)

.rela.plt
 *(.rela.plt)

.text           0x00000000     0x2bc4
 *(.vectors)
 .vectors       0x00000000      0x1fc C:/Program Files (x86)/Atmel/Studio/7.0/Packs/atmel/XMEGAA_DFP/1.3.146/gcc/dev/atxmega256a3bu/avrxmega6/crtatxmega256a3bu.o
                0x00000000                __vector_default
                0x00000000                __vectors
 *(.vectors)
 *(.progmem.gcc*)
                0x000001fc                . = ALIGN (0x2)
                0x000001fc                __trampolines_start = .
 *(.trampolines)
 .trampolines   0x000001fc        0x0 linker stubs
 *(.trampolines*)
                0x000001fc                __trampolines_end = .
 *libprintf_flt.a:*(.progmem.data)
 *libc.a:*(.progmem.data)
 *(.progmem*)
 .progmem.data.sysfont_glyphs
                0x000001fc      0x292 src/ASF/common/services/gfx_mono/sysfont.o
                0x0000048e                . = ALIGN (0x2)
 *(.jumptables)
 *(.jumptables*)
 *(.lowtext)
 *(.lowtext*)
                0x0000048e                __ctors_start = .
 *(.ctors)
                0x0000048e                __ctors_end = .
                0x0000048e                __dtors_start = .
 *(.dtors)
                0x0000048e                __dtors_end = .
 SORT(*)(.ctors)
 SORT(*)(.dtors)
 *(.init0)
 .init0         0x0000048e        0x0 C:/Program Files (x86)/Atmel/Studio/7.0/Packs/atmel/XMEGAA_DFP/1.3.146/gcc/dev/atxmega256a3bu/avrxmega6/crtatxmega256a3bu.o
                0x0000048e                __init
 *(.init0)
 *(.init1)
 *(.init1)
 *(.init2)
 .init2         0x0000048e       0x10 C:/Program Files (x86)/Atmel/Studio/7.0/Packs/atmel/XMEGAA_DFP/1.3.146/gcc/dev/atxmega256a3bu/avrxmega6/crtatxmega256a3bu.o
 *(.init2)
 *(.init3)
 *(.init3)
 *(.init4)
 .init4         0x0000049e       0x1a c:/program files (x86)/atmel/studio/7.0/toolchain/avr8/avr8-gnu-toolchain/bin/../lib/gcc/avr/5.4.0/avrxmega6\libgcc.a(_copy_data.o)
                0x0000049e                __do_copy_data
 .init4         0x000004b8       0x10 c:/program files (x86)/atmel/studio/7.0/toolchain/avr8/avr8-gnu-toolchain/bin/../lib/gcc/avr/5.4.0/avrxmega6\libgcc.a(_clear_bss.o)
                0x000004b8                __do_clear_bss
 *(.init4)
 *(.init5)
 *(.init5)
 *(.init6)
 *(.init6)
 *(.init7)
 *(.init7)
 *(.init8)
 *(.init8)
 *(.init9)
 .init9         0x000004c8        0x8 C:/Program Files (x86)/Atmel/Studio/7.0/Packs/atmel/XMEGAA_DFP/1.3.146/gcc/dev/atxmega256a3bu/avrxmega6/crtatxmega256a3bu.o
 *(.init9)
 *(.text)
 .text          0x000004d0        0x2 C:/Program Files (x86)/Atmel/Studio/7.0/Packs/atmel/XMEGAA_DFP/1.3.146/gcc/dev/atxmega256a3bu/avrxmega6/crtatxmega256a3bu.o
                0x000004d0                __vector_38
                0x000004d0                __vector_104
                0x000004d0                __vector_63
                0x000004d0                __vector_28
                0x000004d0                __vector_67
                0x000004d0                __vector_1
                0x000004d0                __vector_119
                0x000004d0                __vector_32
                0x000004d0                __vector_75
                0x000004d0                __vector_71
                0x000004d0                __vector_91
                0x000004d0                __vector_34
                0x000004d0                __vector_62
                0x000004d0                __vector_102
                0x000004d0                __vector_24
                0x000004d0                __vector_12
                0x000004d0                __vector_69
                0x000004d0                __vector_90
                0x000004d0                __vector_46
                0x000004d0                __bad_interrupt
                0x000004d0                __vector_122
                0x000004d0                __vector_72
                0x000004d0                __vector_114
                0x000004d0                __vector_6
                0x000004d0                __vector_31
                0x000004d0                __vector_92
                0x000004d0                __vector_35
                0x000004d0                __vector_74
                0x000004d0                __vector_117
                0x000004d0                __vector_39
                0x000004d0                __vector_107
                0x000004d0                __vector_3
                0x000004d0                __vector_105
                0x000004d0                __vector_98
                0x000004d0                __vector_68
                0x000004d0                __vector_30
                0x000004d0                __vector_73
                0x000004d0                __vector_45
                0x000004d0                __vector_25
                0x000004d0                __vector_93
                0x000004d0                __vector_61
                0x000004d0                __vector_11
                0x000004d0                __vector_99
                0x000004d0                __vector_13
                0x000004d0                __vector_7
                0x000004d0                __vector_125
                0x000004d0                __vector_123
                0x000004d0                __vector_41
                0x000004d0                __vector_100
                0x000004d0                __vector_101
                0x000004d0                __vector_64
                0x000004d0                __vector_88
                0x000004d0                __vector_43
                0x000004d0                __vector_27
                0x000004d0                __vector_5
                0x000004d0                __vector_33
                0x000004d0                __vector_76
                0x000004d0                __vector_115
                0x000004d0                __vector_37
                0x000004d0                __vector_95
                0x000004d0                __vector_103
                0x000004d0                __vector_96
                0x000004d0                __vector_89
                0x000004d0                __vector_4
                0x000004d0                __vector_44
                0x000004d0                __vector_106
                0x000004d0                __vector_118
                0x000004d0                __vector_9
                0x000004d0                __vector_2
                0x000004d0                __vector_66
                0x000004d0                __vector_36
                0x000004d0                __vector_58
                0x000004d0                __vector_70
                0x000004d0                __vector_29
                0x000004d0                __vector_60
                0x000004d0                __vector_121
                0x000004d0                __vector_40
                0x000004d0                __vector_94
                0x000004d0                __vector_126
                0x000004d0                __vector_8
                0x000004d0                __vector_26
                0x000004d0                __vector_124
                0x000004d0                __vector_116
                0x000004d0                __vector_57
                0x000004d0                __vector_10
                0x000004d0                __vector_59
                0x000004d0                __vector_97
                0x000004d0                __vector_42
                0x000004d0                __vector_87
                0x000004d0                __vector_65
                0x000004d0                __vector_120
                0x000004d2                . = ALIGN (0x2)
 *(.text.*)
 .text.__portable_avr_delay_cycles
                0x000004d2       0x16 src/ASF/common/components/display/st7565r/st7565r.o
 .text.st7565r_init
                0x000004e8      0x388 src/ASF/common/components/display/st7565r/st7565r.o
                0x000004e8                st7565r_init
 .text.gfx_mono_st7565r_put_byte
                0x00000870      0x14e src/ASF/common/services/gfx_mono/gfx_mono_c12832_a1z.o
                0x00000870                gfx_mono_st7565r_put_byte
 .text.gfx_mono_st7565r_init
                0x000009be       0x84 src/ASF/common/services/gfx_mono/gfx_mono_c12832_a1z.o
                0x000009be                gfx_mono_st7565r_init
 .text.gfx_mono_st7565r_draw_pixel
                0x00000a42       0x6c src/ASF/common/services/gfx_mono/gfx_mono_c12832_a1z.o
                0x00000a42                gfx_mono_st7565r_draw_pixel
 .text.gfx_mono_st7565r_get_byte
                0x00000aae        0x4 src/ASF/common/services/gfx_mono/gfx_mono_c12832_a1z.o
                0x00000aae                gfx_mono_st7565r_get_byte
 .text.usart_spi_set_baudrate
                0x00000ab2       0x64 src/ASF/xmega/drivers/usart/usart.o
                0x00000ab2                usart_spi_set_baudrate
 .text.usart_init_spi
                0x00000b16      0x3c8 src/ASF/xmega/drivers/usart/usart.o
                0x00000b16                usart_init_spi
 .text.usart_spi_init
                0x00000ede       0x5e src/ASF/common/services/spi/xmega_usart_spi/usart_spi.o
                0x00000ede                usart_spi_init
 .text.usart_spi_setup_device
                0x00000f3c       0x34 src/ASF/common/services/spi/xmega_usart_spi/usart_spi.o
                0x00000f3c                usart_spi_setup_device
 .text.usart_spi_select_device
                0x00000f70       0x2c src/ASF/common/services/spi/xmega_usart_spi/usart_spi.o
                0x00000f70                usart_spi_select_device
 .text.usart_spi_deselect_device
                0x00000f9c       0x2c src/ASF/common/services/spi/xmega_usart_spi/usart_spi.o
                0x00000f9c                usart_spi_deselect_device
 .text.gfx_mono_set_framebuffer
                0x00000fc8        0xa src/ASF/common/services/gfx_mono/gfx_mono_framebuffer.o
                0x00000fc8                gfx_mono_set_framebuffer
 .text.gfx_mono_framebuffer_put_byte
                0x00000fd2       0x1c src/ASF/common/services/gfx_mono/gfx_mono_framebuffer.o
                0x00000fd2                gfx_mono_framebuffer_put_byte
 .text.gfx_mono_framebuffer_get_byte
                0x00000fee       0x1c src/ASF/common/services/gfx_mono/gfx_mono_framebuffer.o
                0x00000fee                gfx_mono_framebuffer_get_byte
 .text.gfx_mono_generic_draw_horizontal_line
                0x0000100a       0xc4 src/ASF/common/services/gfx_mono/gfx_mono_generic.o
                0x0000100a                gfx_mono_generic_draw_horizontal_line
 .text.gfx_mono_generic_draw_filled_rect
                0x000010ce       0x34 src/ASF/common/services/gfx_mono/gfx_mono_generic.o
                0x000010ce                gfx_mono_generic_draw_filled_rect
 .text.sysclk_init
                0x00001102       0x20 src/ASF/common/services/clock/xmega/sysclk.o
                0x00001102                sysclk_init
 .text.sysclk_enable_module
                0x00001122       0x2c src/ASF/common/services/clock/xmega/sysclk.o
                0x00001122                sysclk_enable_module
 .text.__vector_14
                0x0000114e       0x5a src/ASF/xmega/drivers/tc/tc.o
                0x0000114e                __vector_14
 .text.__vector_15
                0x000011a8       0x5a src/ASF/xmega/drivers/tc/tc.o
                0x000011a8                __vector_15
 .text.__vector_16
                0x00001202       0x5a src/ASF/xmega/drivers/tc/tc.o
                0x00001202                __vector_16
 .text.__vector_17
                0x0000125c       0x5a src/ASF/xmega/drivers/tc/tc.o
                0x0000125c                __vector_17
 .text.__vector_18
                0x000012b6       0x5a src/ASF/xmega/drivers/tc/tc.o
                0x000012b6                __vector_18
 .text.__vector_19
                0x00001310       0x5a src/ASF/xmega/drivers/tc/tc.o
                0x00001310                __vector_19
 .text.__vector_20
                0x0000136a       0x5a src/ASF/xmega/drivers/tc/tc.o
                0x0000136a                __vector_20
 .text.__vector_21
                0x000013c4       0x5a src/ASF/xmega/drivers/tc/tc.o
                0x000013c4                __vector_21
 .text.__vector_22
                0x0000141e       0x5a src/ASF/xmega/drivers/tc/tc.o
                0x0000141e                __vector_22
 .text.__vector_23
                0x00001478       0x5a src/ASF/xmega/drivers/tc/tc.o
                0x00001478                __vector_23
 .text.__vector_77
                0x000014d2       0x5a src/ASF/xmega/drivers/tc/tc.o
                0x000014d2                __vector_77
 .text.__vector_78
                0x0000152c       0x5a src/ASF/xmega/drivers/tc/tc.o
                0x0000152c                __vector_78
 .text.__vector_79
                0x00001586       0x5a src/ASF/xmega/drivers/tc/tc.o
                0x00001586                __vector_79
 .text.__vector_80
                0x000015e0       0x5a src/ASF/xmega/drivers/tc/tc.o
                0x000015e0                __vector_80
 .text.__vector_81
                0x0000163a       0x5a src/ASF/xmega/drivers/tc/tc.o
                0x0000163a                __vector_81
 .text.__vector_82
                0x00001694       0x5a src/ASF/xmega/drivers/tc/tc.o
                0x00001694                __vector_82
 .text.__vector_83
                0x000016ee       0x5a src/ASF/xmega/drivers/tc/tc.o
                0x000016ee                __vector_83
 .text.__vector_84
                0x00001748       0x5a src/ASF/xmega/drivers/tc/tc.o
                0x00001748                __vector_84
 .text.__vector_85
                0x000017a2       0x5a src/ASF/xmega/drivers/tc/tc.o
                0x000017a2                __vector_85
 .text.__vector_86
                0x000017fc       0x5a src/ASF/xmega/drivers/tc/tc.o
                0x000017fc                __vector_86
 .text.__vector_47
                0x00001856       0x5a src/ASF/xmega/drivers/tc/tc.o
                0x00001856                __vector_47
 .text.__vector_48
                0x000018b0       0x5a src/ASF/xmega/drivers/tc/tc.o
                0x000018b0                __vector_48
 .text.__vector_49
                0x0000190a       0x5a src/ASF/xmega/drivers/tc/tc.o
                0x0000190a                __vector_49
 .text.__vector_50
                0x00001964       0x5a src/ASF/xmega/drivers/tc/tc.o
                0x00001964                __vector_50
 .text.__vector_51
                0x000019be       0x5a src/ASF/xmega/drivers/tc/tc.o
                0x000019be                __vector_51
 .text.__vector_52
                0x00001a18       0x5a src/ASF/xmega/drivers/tc/tc.o
                0x00001a18                __vector_52
 .text.__vector_53
                0x00001a72       0x5a src/ASF/xmega/drivers/tc/tc.o
                0x00001a72                __vector_53
 .text.__vector_54
                0x00001acc       0x5a src/ASF/xmega/drivers/tc/tc.o
                0x00001acc                __vector_54
 .text.__vector_55
                0x00001b26       0x5a src/ASF/xmega/drivers/tc/tc.o
                0x00001b26                __vector_55
 .text.__vector_56
                0x00001b80       0x5a src/ASF/xmega/drivers/tc/tc.o
                0x00001b80                __vector_56
 .text.__vector_108
                0x00001bda       0x5a src/ASF/xmega/drivers/tc/tc.o
                0x00001bda                __vector_108
 .text.__vector_109
                0x00001c34       0x5a src/ASF/xmega/drivers/tc/tc.o
                0x00001c34                __vector_109
 .text.__vector_110
                0x00001c8e       0x5a src/ASF/xmega/drivers/tc/tc.o
                0x00001c8e                __vector_110
 .text.__vector_111
                0x00001ce8       0x5a src/ASF/xmega/drivers/tc/tc.o
                0x00001ce8                __vector_111
 .text.__vector_112
                0x00001d42       0x5a src/ASF/xmega/drivers/tc/tc.o
                0x00001d42                __vector_112
 .text.__vector_113
                0x00001d9c       0x5a src/ASF/xmega/drivers/tc/tc.o
                0x00001d9c                __vector_113
 .text.tc_enable
                0x00001df6       0xe2 src/ASF/xmega/drivers/tc/tc.o
                0x00001df6                tc_enable
 .text.tc_set_overflow_interrupt_callback
                0x00001ed8       0x7c src/ASF/xmega/drivers/tc/tc.o
                0x00001ed8                tc_set_overflow_interrupt_callback
 .text.gfx_mono_draw_char
                0x00001f54       0xbc src/ASF/common/services/gfx_mono/gfx_mono_text.o
                0x00001f54                gfx_mono_draw_char
 .text.gfx_mono_draw_string
                0x00002010       0x52 src/ASF/common/services/gfx_mono/gfx_mono_text.o
                0x00002010                gfx_mono_draw_string
 .text.ioport_configure_port_pin
                0x00002062       0x4e src/ASF/common/services/ioport/xmega/ioport_compat.o
                0x00002062                ioport_configure_port_pin
 .text.board_init
                0x000020b0      0x13a src/ASF/xmega/boards/xmega_a3bu_xplained/init.o
                0x000020b0                board_init
 .text.__portable_avr_delay_cycles
                0x000021ea       0x16 src/main.o
 .text.print_message
                0x00002200       0x14 src/main.o
                0x00002200                print_message
 .text.setup_timer
                0x00002214       0x38 src/main.o
                0x00002214                setup_timer
 .text.main     0x0000224c      0x376 src/main.o
                0x0000224c                main
 .text.libgcc.div
                0x000025c2       0x44 c:/program files (x86)/atmel/studio/7.0/toolchain/avr8/avr8-gnu-toolchain/bin/../lib/gcc/avr/5.4.0/avrxmega6\libgcc.a(_udivmodsi4.o)
                0x000025c2                __udivmodsi4
 .text.avr-libc
                0x00002606       0x6c c:/program files (x86)/atmel/studio/7.0/toolchain/avr8/avr8-gnu-toolchain/bin/../lib/gcc/avr/5.4.0/../../../../avr/lib/avrxmega6\libc.a(snprintf.o)
                0x00002606                snprintf
 .text.avr-libc
                0x00002672      0x3ee c:/program files (x86)/atmel/studio/7.0/toolchain/avr8/avr8-gnu-toolchain/bin/../lib/gcc/avr/5.4.0/../../../../avr/lib/avrxmega6\libc.a(vfprintf_std.o)
                0x00002672                vfprintf
 .text.avr-libc
                0x00002a60       0x16 c:/program files (x86)/atmel/studio/7.0/toolchain/avr8/avr8-gnu-toolchain/bin/../lib/gcc/avr/5.4.0/../../../../avr/lib/avrxmega6\libc.a(strnlen_P.o)
                0x00002a60                strnlen_P
 .text.avr-libc
                0x00002a76       0x16 c:/program files (x86)/atmel/studio/7.0/toolchain/avr8/avr8-gnu-toolchain/bin/../lib/gcc/avr/5.4.0/../../../../avr/lib/avrxmega6\libc.a(strnlen.o)
                0x00002a76                strnlen
 .text.avr-libc
                0x00002a8c       0x78 c:/program files (x86)/atmel/studio/7.0/toolchain/avr8/avr8-gnu-toolchain/bin/../lib/gcc/avr/5.4.0/../../../../avr/lib/avrxmega6\libc.a(fputc.o)
                0x00002a8c                fputc
 .text.avr-libc
                0x00002b04       0xbc c:/program files (x86)/atmel/studio/7.0/toolchain/avr8/avr8-gnu-toolchain/bin/../lib/gcc/avr/5.4.0/../../../../avr/lib/avrxmega6\libc.a(ultoa_invert.o)
                0x00002b04                __ultoa_invert
                0x00002bc0                . = ALIGN (0x2)
 *(.fini9)
 .fini9         0x00002bc0        0x0 c:/program files (x86)/atmel/studio/7.0/toolchain/avr8/avr8-gnu-toolchain/bin/../lib/gcc/avr/5.4.0/avrxmega6\libgcc.a(_exit.o)
                0x00002bc0                _exit
                0x00002bc0                exit
 *(.fini9)
 *(.fini8)
 *(.fini8)
 *(.fini7)
 *(.fini7)
 *(.fini6)
 *(.fini6)
 *(.fini5)
 *(.fini5)
 *(.fini4)
 *(.fini4)
 *(.fini3)
 *(.fini3)
 *(.fini2)
 *(.fini2)
 *(.fini1)
 *(.fini1)
 *(.fini0)
 .fini0         0x00002bc0        0x4 c:/program files (x86)/atmel/studio/7.0/toolchain/avr8/avr8-gnu-toolchain/bin/../lib/gcc/avr/5.4.0/avrxmega6\libgcc.a(_exit.o)
 *(.fini0)
                0x00002bc4                _etext = .

.data           0x00802000       0x62 load address 0x00002bc4
                0x00802000                PROVIDE (__data_start, .)
 *(.data)
 *(.data*)
 .data.sysfont  0x00802000        0x7 src/ASF/common/services/gfx_mono/sysfont.o
                0x00802000                sysfont
 *(.gnu.linkonce.d*)
 *(.rodata)
 *(.rodata*)
 .rodata.str1.1
                0x00802007       0x5b src/main.o
 *(.gnu.linkonce.r*)
                0x00802062                . = ALIGN (0x2)
                0x00802062                _edata = .
                0x00802062                PROVIDE (__data_end, .)

.bss            0x00802062      0x39c
                0x00802062                PROVIDE (__bss_start, .)
 *(.bss)
 *(.bss*)
 .bss.framebuffer
                0x00802062      0x200 src/ASF/common/services/gfx_mono/gfx_mono_c12832_a1z.o
 .bss.fbpointer
                0x00802262        0x2 src/ASF/common/services/gfx_mono/gfx_mono_framebuffer.o
 .bss.tc_tcf0_ccd_callback
                0x00802264        0x2 src/ASF/xmega/drivers/tc/tc.o
 .bss.tc_tcf0_ccc_callback
                0x00802266        0x2 src/ASF/xmega/drivers/tc/tc.o
 .bss.tc_tcf0_ccb_callback
                0x00802268        0x2 src/ASF/xmega/drivers/tc/tc.o
 .bss.tc_tcf0_cca_callback
                0x0080226a        0x2 src/ASF/xmega/drivers/tc/tc.o
 .bss.tc_tcf0_err_callback
                0x0080226c        0x2 src/ASF/xmega/drivers/tc/tc.o
 .bss.tc_tcf0_ovf_callback
                0x0080226e        0x2 src/ASF/xmega/drivers/tc/tc.o
 .bss.tc_tce1_ccb_callback
                0x00802270        0x2 src/ASF/xmega/drivers/tc/tc.o
 .bss.tc_tce1_cca_callback
                0x00802272        0x2 src/ASF/xmega/drivers/tc/tc.o
 .bss.tc_tce1_err_callback
                0x00802274        0x2 src/ASF/xmega/drivers/tc/tc.o
 .bss.tc_tce1_ovf_callback
                0x00802276        0x2 src/ASF/xmega/drivers/tc/tc.o
 .bss.tc_tce0_ccd_callback
                0x00802278        0x2 src/ASF/xmega/drivers/tc/tc.o
 .bss.tc_tce0_ccc_callback
                0x0080227a        0x2 src/ASF/xmega/drivers/tc/tc.o
 .bss.tc_tce0_ccb_callback
                0x0080227c        0x2 src/ASF/xmega/drivers/tc/tc.o
 .bss.tc_tce0_cca_callback
                0x0080227e        0x2 src/ASF/xmega/drivers/tc/tc.o
 .bss.tc_tce0_err_callback
                0x00802280        0x2 src/ASF/xmega/drivers/tc/tc.o
 .bss.tc_tce0_ovf_callback
                0x00802282        0x2 src/ASF/xmega/drivers/tc/tc.o
 .bss.tc_tcd1_ccb_callback
                0x00802284        0x2 src/ASF/xmega/drivers/tc/tc.o
 .bss.tc_tcd1_cca_callback
                0x00802286        0x2 src/ASF/xmega/drivers/tc/tc.o
 .bss.tc_tcd1_err_callback
                0x00802288        0x2 src/ASF/xmega/drivers/tc/tc.o
 .bss.tc_tcd1_ovf_callback
                0x0080228a        0x2 src/ASF/xmega/drivers/tc/tc.o
 .bss.tc_tcd0_ccd_callback
                0x0080228c        0x2 src/ASF/xmega/drivers/tc/tc.o
 .bss.tc_tcd0_ccc_callback
                0x0080228e        0x2 src/ASF/xmega/drivers/tc/tc.o
 .bss.tc_tcd0_ccb_callback
                0x00802290        0x2 src/ASF/xmega/drivers/tc/tc.o
 .bss.tc_tcd0_cca_callback
                0x00802292        0x2 src/ASF/xmega/drivers/tc/tc.o
 .bss.tc_tcd0_err_callback
                0x00802294        0x2 src/ASF/xmega/drivers/tc/tc.o
 .bss.tc_tcd0_ovf_callback
                0x00802296        0x2 src/ASF/xmega/drivers/tc/tc.o
 .bss.tc_tcc1_ccb_callback
                0x00802298        0x2 src/ASF/xmega/drivers/tc/tc.o
 .bss.tc_tcc1_cca_callback
                0x0080229a        0x2 src/ASF/xmega/drivers/tc/tc.o
 .bss.tc_tcc1_err_callback
                0x0080229c        0x2 src/ASF/xmega/drivers/tc/tc.o
 .bss.tc_tcc1_ovf_callback
                0x0080229e        0x2 src/ASF/xmega/drivers/tc/tc.o
 .bss.tc_tcc0_ccd_callback
                0x008022a0        0x2 src/ASF/xmega/drivers/tc/tc.o
 .bss.tc_tcc0_ccc_callback
                0x008022a2        0x2 src/ASF/xmega/drivers/tc/tc.o
 .bss.tc_tcc0_ccb_callback
                0x008022a4        0x2 src/ASF/xmega/drivers/tc/tc.o
 .bss.tc_tcc0_cca_callback
                0x008022a6        0x2 src/ASF/xmega/drivers/tc/tc.o
 .bss.tc_tcc0_err_callback
                0x008022a8        0x2 src/ASF/xmega/drivers/tc/tc.o
 .bss.tc_tcc0_ovf_callback
                0x008022aa        0x2 src/ASF/xmega/drivers/tc/tc.o
 .bss.strbuf    0x008022ac       0x80 src/main.o
 .bss.buffarray
                0x0080232c       0xc8 src/main.o
 .bss.incremental
                0x008023f4        0x2 src/main.o
                0x008023f4                incremental
 .bss.score     0x008023f6        0x2 src/main.o
                0x008023f6                score
 *(COMMON)
 COMMON         0x008023f8        0x6 src/ASF/common/services/sleepmgr/xmega/sleepmgr.o
                0x008023f8                sleepmgr_locks
                0x008023fe                PROVIDE (__bss_end, .)
                0x00002bc4                __data_load_start = LOADADDR (.data)
                0x00002c26                __data_load_end = (__data_load_start + SIZEOF (.data))

.noinit         0x008023fe        0x0
                [!provide]                PROVIDE (__noinit_start, .)
 *(.noinit*)
                [!provide]                PROVIDE (__noinit_end, .)
                0x008023fe                _end = .
                [!provide]                PROVIDE (__heap_start, .)

.eeprom         0x00810000        0x0
 *(.eeprom*)
                0x00810000                __eeprom_end = .

.fuse
 *(.fuse)
 *(.lfuse)
 *(.hfuse)
 *(.efuse)

.lock
 *(.lock*)

.signature
 *(.signature*)

.user_signatures
 *(.user_signatures*)

.stab
 *(.stab)

.stabstr
 *(.stabstr)

.stab.excl
 *(.stab.excl)

.stab.exclstr
 *(.stab.exclstr)

.stab.index
 *(.stab.index)

.stab.indexstr
 *(.stab.indexstr)

.comment        0x00000000       0x5c
 *(.comment)
 .comment       0x00000000       0x30 src/ASF/common/components/display/st7565r/st7565r.o
                                 0x31 (size before relaxing)
 .comment       0x00000030       0x31 src/ASF/common/services/gfx_mono/gfx_mono_c12832_a1z.o
 .comment       0x00000030       0x31 src/ASF/xmega/drivers/usart/usart.o
 .comment       0x00000030       0x31 src/ASF/common/services/spi/xmega_usart_spi/usart_spi.o
 .comment       0x00000030       0x31 src/ASF/common/services/sleepmgr/xmega/sleepmgr.o
 .comment       0x00000030       0x31 src/ASF/common/services/gfx_mono/gfx_mono_framebuffer.o
 .comment       0x00000030       0x31 src/ASF/common/services/gfx_mono/gfx_mono_generic.o
 .comment       0x00000030       0x31 src/ASF/common/services/clock/xmega/sysclk.o
 .comment       0x00000030       0x31 src/ASF/xmega/drivers/tc/tc.o
 .comment       0x00000030       0x31 src/ASF/common/services/gfx_mono/gfx_mono_text.o
 .comment       0x00000030       0x31 src/ASF/common/services/gfx_mono/sysfont.o
 .comment       0x00000030       0x31 src/ASF/common/services/ioport/xmega/ioport_compat.o
 .comment       0x00000030       0x31 src/ASF/xmega/boards/xmega_a3bu_xplained/init.o
 .comment       0x00000030       0x31 src/main.o
 .comment       0x00000030       0x31 c:/program files (x86)/atmel/studio/7.0/toolchain/avr8/avr8-gnu-toolchain/bin/../lib/gcc/avr/5.4.0/../../../../avr/lib/avrxmega6\libc.a(snprintf.o)
 .comment       0x00000030       0x2c c:/program files (x86)/atmel/studio/7.0/toolchain/avr8/avr8-gnu-toolchain/bin/../lib/gcc/avr/5.4.0/../../../../avr/lib/avrxmega6\libc.a(vfprintf_std.o)
                                 0x2d (size before relaxing)
 .comment       0x0000005c       0x31 c:/program files (x86)/atmel/studio/7.0/toolchain/avr8/avr8-gnu-toolchain/bin/../lib/gcc/avr/5.4.0/../../../../avr/lib/avrxmega6\libc.a(fputc.o)

.note.gnu.avr.deviceinfo
                0x00000000       0x44
 .note.gnu.avr.deviceinfo
                0x00000000       0x44 C:/Program Files (x86)/Atmel/Studio/7.0/Packs/atmel/XMEGAA_DFP/1.3.146/gcc/dev/atxmega256a3bu/avrxmega6/crtatxmega256a3bu.o

.note.gnu.build-id
 *(.note.gnu.build-id)

.debug
 *(.debug)

.line
 *(.line)

.debug_srcinfo
 *(.debug_srcinfo)

.debug_sfnames
 *(.debug_sfnames)

.debug_aranges  0x00000000      0x478
 *(.debug_aranges)
 .debug_aranges
                0x00000000       0x28 src/ASF/common/components/display/st7565r/st7565r.o
 .debug_aranges
                0x00000028       0x60 src/ASF/common/services/gfx_mono/gfx_mono_c12832_a1z.o
 .debug_aranges
                0x00000088       0x58 src/ASF/xmega/drivers/usart/usart.o
 .debug_aranges
                0x000000e0       0x48 src/ASF/common/services/spi/xmega_usart_spi/usart_spi.o
 .debug_aranges
                0x00000128       0x18 src/ASF/common/services/sleepmgr/xmega/sleepmgr.o
 .debug_aranges
                0x00000140       0x58 src/ASF/common/services/gfx_mono/gfx_mono_framebuffer.o
 .debug_aranges
                0x00000198       0x58 src/ASF/common/services/gfx_mono/gfx_mono_generic.o
 .debug_aranges
                0x000001f0       0x40 src/ASF/common/services/clock/xmega/sysclk.o
 .debug_aranges
                0x00000230      0x178 src/ASF/xmega/drivers/tc/tc.o
 .debug_aranges
                0x000003a8       0x40 src/ASF/common/services/gfx_mono/gfx_mono_text.o
 .debug_aranges
                0x000003e8       0x18 src/ASF/common/services/gfx_mono/sysfont.o
 .debug_aranges
                0x00000400       0x20 src/ASF/common/services/ioport/xmega/ioport_compat.o
 .debug_aranges
                0x00000420       0x20 src/ASF/xmega/boards/xmega_a3bu_xplained/init.o
 .debug_aranges
                0x00000440       0x38 src/main.o

.debug_pubnames
 *(.debug_pubnames)

.debug_info     0x00000000     0xfbdf
 *(.debug_info .gnu.linkonce.wi.*)
 .debug_info    0x00000000     0x3379 C:/Program Files (x86)/Atmel/Studio/7.0/Packs/atmel/XMEGAA_DFP/1.3.146/gcc/dev/atxmega256a3bu/avrxmega6/crtatxmega256a3bu.o
 .debug_info    0x00003379     0x1964 src/ASF/common/components/display/st7565r/st7565r.o
 .debug_info    0x00004cdd     0x1e01 src/ASF/common/services/gfx_mono/gfx_mono_c12832_a1z.o
 .debug_info    0x00006ade     0x2933 src/ASF/xmega/drivers/usart/usart.o
 .debug_info    0x00009411      0xb9d src/ASF/common/services/spi/xmega_usart_spi/usart_spi.o
 .debug_info    0x00009fae      0x129 src/ASF/common/services/sleepmgr/xmega/sleepmgr.o
 .debug_info    0x0000a0d7      0x487 src/ASF/common/services/gfx_mono/gfx_mono_framebuffer.o
 .debug_info    0x0000a55e      0xc0a src/ASF/common/services/gfx_mono/gfx_mono_generic.o
 .debug_info    0x0000b168      0x71c src/ASF/common/services/clock/xmega/sysclk.o
 .debug_info    0x0000b884     0x16ba src/ASF/xmega/drivers/tc/tc.o
 .debug_info    0x0000cf3e      0x715 src/ASF/common/services/gfx_mono/gfx_mono_text.o
 .debug_info    0x0000d653      0x1af src/ASF/common/services/gfx_mono/sysfont.o
 .debug_info    0x0000d802      0x121 src/ASF/common/services/ioport/xmega/ioport_compat.o
 .debug_info    0x0000d923      0xb05 src/ASF/xmega/boards/xmega_a3bu_xplained/init.o
 .debug_info    0x0000e428     0x17b7 src/main.o

.debug_abbrev   0x00000000     0x4eb5
 *(.debug_abbrev)
 .debug_abbrev  0x00000000     0x30c4 C:/Program Files (x86)/Atmel/Studio/7.0/Packs/atmel/XMEGAA_DFP/1.3.146/gcc/dev/atxmega256a3bu/avrxmega6/crtatxmega256a3bu.o
 .debug_abbrev  0x000030c4      0x2a0 src/ASF/common/components/display/st7565r/st7565r.o
 .debug_abbrev  0x00003364      0x385 src/ASF/common/services/gfx_mono/gfx_mono_c12832_a1z.o
 .debug_abbrev  0x000036e9      0x3f5 src/ASF/xmega/drivers/usart/usart.o
 .debug_abbrev  0x00003ade      0x2d8 src/ASF/common/services/spi/xmega_usart_spi/usart_spi.o
 .debug_abbrev  0x00003db6       0x84 src/ASF/common/services/sleepmgr/xmega/sleepmgr.o
 .debug_abbrev  0x00003e3a      0x174 src/ASF/common/services/gfx_mono/gfx_mono_framebuffer.o
 .debug_abbrev  0x00003fae      0x1ac src/ASF/common/services/gfx_mono/gfx_mono_generic.o
 .debug_abbrev  0x0000415a      0x218 src/ASF/common/services/clock/xmega/sysclk.o
 .debug_abbrev  0x00004372      0x2a4 src/ASF/xmega/drivers/tc/tc.o
 .debug_abbrev  0x00004616      0x22b src/ASF/common/services/gfx_mono/gfx_mono_text.o
 .debug_abbrev  0x00004841       0xe2 src/ASF/common/services/gfx_mono/sysfont.o
 .debug_abbrev  0x00004923       0x95 src/ASF/common/services/ioport/xmega/ioport_compat.o
 .debug_abbrev  0x000049b8      0x15c src/ASF/xmega/boards/xmega_a3bu_xplained/init.o
 .debug_abbrev  0x00004b14      0x3a1 src/main.o

.debug_line     0x00000000     0x86a2
 *(.debug_line .debug_line.* .debug_line_end)
 .debug_line    0x00000000      0x39d C:/Program Files (x86)/Atmel/Studio/7.0/Packs/atmel/XMEGAA_DFP/1.3.146/gcc/dev/atxmega256a3bu/avrxmega6/crtatxmega256a3bu.o
 .debug_line    0x0000039d      0xac4 src/ASF/common/components/display/st7565r/st7565r.o
 .debug_line    0x00000e61      0xda8 src/ASF/common/services/gfx_mono/gfx_mono_c12832_a1z.o
 .debug_line    0x00001c09      0xc9e src/ASF/xmega/drivers/usart/usart.o
 .debug_line    0x000028a7      0x7d7 src/ASF/common/services/spi/xmega_usart_spi/usart_spi.o
 .debug_line    0x0000307e      0x458 src/ASF/common/services/sleepmgr/xmega/sleepmgr.o
 .debug_line    0x000034d6      0x919 src/ASF/common/services/gfx_mono/gfx_mono_framebuffer.o
 .debug_line    0x00003def      0xc05 src/ASF/common/services/gfx_mono/gfx_mono_generic.o
 .debug_line    0x000049f4      0x631 src/ASF/common/services/clock/xmega/sysclk.o
 .debug_line    0x00005025      0xed3 src/ASF/xmega/drivers/tc/tc.o
 .debug_line    0x00005ef8      0x9a3 src/ASF/common/services/gfx_mono/gfx_mono_text.o
 .debug_line    0x0000689b      0x7c3 src/ASF/common/services/gfx_mono/sysfont.o
 .debug_line    0x0000705e      0x4b5 src/ASF/common/services/ioport/xmega/ioport_compat.o
 .debug_line    0x00007513      0x4e0 src/ASF/xmega/boards/xmega_a3bu_xplained/init.o
 .debug_line    0x000079f3      0xcaf src/main.o

.debug_frame    0x00000000     0x164c
 *(.debug_frame)
 .debug_frame   0x00000000       0x68 src/ASF/common/components/display/st7565r/st7565r.o
 .debug_frame   0x00000068      0x1b4 src/ASF/common/services/gfx_mono/gfx_mono_c12832_a1z.o
 .debug_frame   0x0000021c      0x14c src/ASF/xmega/drivers/usart/usart.o
 .debug_frame   0x00000368       0x90 src/ASF/common/services/spi/xmega_usart_spi/usart_spi.o
 .debug_frame   0x000003f8       0xd0 src/ASF/common/services/gfx_mono/gfx_mono_framebuffer.o
 .debug_frame   0x000004c8      0x214 src/ASF/common/services/gfx_mono/gfx_mono_generic.o
 .debug_frame   0x000006dc       0x94 src/ASF/common/services/clock/xmega/sysclk.o
 .debug_frame   0x00000770      0xd24 src/ASF/xmega/drivers/tc/tc.o
 .debug_frame   0x00001494      0x100 src/ASF/common/services/gfx_mono/gfx_mono_text.o
 .debug_frame   0x00001594       0x30 src/ASF/common/services/ioport/xmega/ioport_compat.o
 .debug_frame   0x000015c4       0x24 src/ASF/xmega/boards/xmega_a3bu_xplained/init.o
 .debug_frame   0x000015e8       0x64 src/main.o

.debug_str      0x00000000    0x335a0
 *(.debug_str)
 .debug_str     0x00000000     0x21e4 C:/Program Files (x86)/Atmel/Studio/7.0/Packs/atmel/XMEGAA_DFP/1.3.146/gcc/dev/atxmega256a3bu/avrxmega6/crtatxmega256a3bu.o
 .debug_str     0x000021e4    0x2c88d src/ASF/common/components/display/st7565r/st7565r.o
                              0x2d0e2 (size before relaxing)
 .debug_str     0x0002ea71      0xc05 src/ASF/common/services/gfx_mono/gfx_mono_c12832_a1z.o
                              0x2d9e3 (size before relaxing)
 .debug_str     0x0002f676      0xaf4 src/ASF/xmega/drivers/usart/usart.o
                              0x2cfd9 (size before relaxing)
 .debug_str     0x0003016a       0x87 src/ASF/common/services/spi/xmega_usart_spi/usart_spi.o
                              0x2c6b7 (size before relaxing)
 .debug_str     0x000301f1      0x3d4 src/ASF/common/services/sleepmgr/xmega/sleepmgr.o
                              0x298a5 (size before relaxing)
 .debug_str     0x000305c5       0xba src/ASF/common/services/gfx_mono/gfx_mono_framebuffer.o
                              0x2d612 (size before relaxing)
 .debug_str     0x0003067f      0x213 src/ASF/common/services/gfx_mono/gfx_mono_generic.o
                              0x2d755 (size before relaxing)
 .debug_str     0x00030892      0x2f9 src/ASF/common/services/clock/xmega/sysclk.o
                              0x2bed5 (size before relaxing)
 .debug_str     0x00030b8b      0x761 src/ASF/xmega/drivers/tc/tc.o
                              0x2c714 (size before relaxing)
 .debug_str     0x000312ec      0x233 src/ASF/common/services/gfx_mono/gfx_mono_text.o
                              0x2d6e9 (size before relaxing)
 .debug_str     0x0003151f     0x10b0 src/ASF/common/services/gfx_mono/sysfont.o
                              0x2e546 (size before relaxing)
 .debug_str     0x000325cf       0x77 src/ASF/common/services/ioport/xmega/ioport_compat.o
                              0x29b5c (size before relaxing)
 .debug_str     0x00032646       0xf7 src/ASF/xmega/boards/xmega_a3bu_xplained/init.o
                              0x2b7fd (size before relaxing)
 .debug_str     0x0003273d      0xe63 src/main.o
                              0x2ff22 (size before relaxing)

.debug_loc      0x00000000     0x7a55
 *(.debug_loc)
 .debug_loc     0x00000000      0x7c9 src/ASF/common/components/display/st7565r/st7565r.o
 .debug_loc     0x000007c9     0x1382 src/ASF/common/services/gfx_mono/gfx_mono_c12832_a1z.o
 .debug_loc     0x00001b4b      0xe14 src/ASF/xmega/drivers/usart/usart.o
 .debug_loc     0x0000295f      0x56c src/ASF/common/services/spi/xmega_usart_spi/usart_spi.o
 .debug_loc     0x00002ecb      0x61c src/ASF/common/services/gfx_mono/gfx_mono_framebuffer.o
 .debug_loc     0x000034e7     0x11c5 src/ASF/common/services/gfx_mono/gfx_mono_generic.o
 .debug_loc     0x000046ac      0x2c5 src/ASF/common/services/clock/xmega/sysclk.o
 .debug_loc     0x00004971     0x1df6 src/ASF/xmega/drivers/tc/tc.o
 .debug_loc     0x00006767      0x9a2 src/ASF/common/services/gfx_mono/gfx_mono_text.o
 .debug_loc     0x00007109       0x66 src/ASF/common/services/ioport/xmega/ioport_compat.o
 .debug_loc     0x0000716f      0x3fa src/ASF/xmega/boards/xmega_a3bu_xplained/init.o
 .debug_loc     0x00007569      0x4ec src/main.o

.debug_macinfo
 *(.debug_macinfo)

.debug_weaknames
 *(.debug_weaknames)

.debug_funcnames
 *(.debug_funcnames)

.debug_typenames
 *(.debug_typenames)

.debug_varnames
 *(.debug_varnames)

.debug_pubtypes
 *(.debug_pubtypes)

.debug_ranges   0x00000000      0x5b0
 *(.debug_ranges)
 .debug_ranges  0x00000000       0x18 src/ASF/common/components/display/st7565r/st7565r.o
 .debug_ranges  0x00000018      0x188 src/ASF/common/services/gfx_mono/gfx_mono_c12832_a1z.o
 .debug_ranges  0x000001a0       0x80 src/ASF/xmega/drivers/usart/usart.o
 .debug_ranges  0x00000220       0x98 src/ASF/common/services/spi/xmega_usart_spi/usart_spi.o
 .debug_ranges  0x000002b8       0x48 src/ASF/common/services/gfx_mono/gfx_mono_framebuffer.o
 .debug_ranges  0x00000300       0x48 src/ASF/common/services/gfx_mono/gfx_mono_generic.o
 .debug_ranges  0x00000348       0x30 src/ASF/common/services/clock/xmega/sysclk.o
 .debug_ranges  0x00000378      0x168 src/ASF/xmega/drivers/tc/tc.o
 .debug_ranges  0x000004e0       0x30 src/ASF/common/services/gfx_mono/gfx_mono_text.o
 .debug_ranges  0x00000510       0x10 src/ASF/common/services/ioport/xmega/ioport_compat.o
 .debug_ranges  0x00000520       0x10 src/ASF/xmega/boards/xmega_a3bu_xplained/init.o
 .debug_ranges  0x00000530       0x80 src/main.o

.debug_macro    0x00000000     0xc331
 *(.debug_macro)
 .debug_macro   0x00000000      0x276 src/ASF/common/components/display/st7565r/st7565r.o
 .debug_macro   0x00000276      0xa9c src/ASF/common/components/display/st7565r/st7565r.o
 .debug_macro   0x00000d12       0x10 src/ASF/common/components/display/st7565r/st7565r.o
 .debug_macro   0x00000d22      0x1c9 src/ASF/common/components/display/st7565r/st7565r.o
 .debug_macro   0x00000eeb      0x2fc src/ASF/common/components/display/st7565r/st7565r.o
 .debug_macro   0x000011e7       0x9e src/ASF/common/components/display/st7565r/st7565r.o
 .debug_macro   0x00001285     0x62b7 src/ASF/common/components/display/st7565r/st7565r.o
 .debug_macro   0x0000753c       0x9a src/ASF/common/components/display/st7565r/st7565r.o
 .debug_macro   0x000075d6       0xf1 src/ASF/common/components/display/st7565r/st7565r.o
 .debug_macro   0x000076c7       0x34 src/ASF/common/components/display/st7565r/st7565r.o
 .debug_macro   0x000076fb       0x16 src/ASF/common/components/display/st7565r/st7565r.o
 .debug_macro   0x00007711       0x18 src/ASF/common/components/display/st7565r/st7565r.o
 .debug_macro   0x00007729       0x5e src/ASF/common/components/display/st7565r/st7565r.o
 .debug_macro   0x00007787       0x10 src/ASF/common/components/display/st7565r/st7565r.o
 .debug_macro   0x00007797       0x22 src/ASF/common/components/display/st7565r/st7565r.o
 .debug_macro   0x000077b9      0x16d src/ASF/common/components/display/st7565r/st7565r.o
 .debug_macro   0x00007926       0x1c src/ASF/common/components/display/st7565r/st7565r.o
 .debug_macro   0x00007942       0x35 src/ASF/common/components/display/st7565r/st7565r.o
 .debug_macro   0x00007977       0x66 src/ASF/common/components/display/st7565r/st7565r.o
 .debug_macro   0x000079dd      0x71d src/ASF/common/components/display/st7565r/st7565r.o
 .debug_macro   0x000080fa       0x96 src/ASF/common/components/display/st7565r/st7565r.o
 .debug_macro   0x00008190       0x17 src/ASF/common/components/display/st7565r/st7565r.o
 .debug_macro   0x000081a7      0x250 src/ASF/common/components/display/st7565r/st7565r.o
 .debug_macro   0x000083f7       0x76 src/ASF/common/components/display/st7565r/st7565r.o
 .debug_macro   0x0000846d       0x16 src/ASF/common/components/display/st7565r/st7565r.o
 .debug_macro   0x00008483      0x6d9 src/ASF/common/components/display/st7565r/st7565r.o
 .debug_macro   0x00008b5c       0x10 src/ASF/common/components/display/st7565r/st7565r.o
 .debug_macro   0x00008b6c      0x175 src/ASF/common/components/display/st7565r/st7565r.o
 .debug_macro   0x00008ce1       0x40 src/ASF/common/components/display/st7565r/st7565r.o
 .debug_macro   0x00008d21       0x69 src/ASF/common/components/display/st7565r/st7565r.o
 .debug_macro   0x00008d8a       0x31 src/ASF/common/components/display/st7565r/st7565r.o
 .debug_macro   0x00008dbb       0xe4 src/ASF/common/components/display/st7565r/st7565r.o
 .debug_macro   0x00008e9f       0x22 src/ASF/common/components/display/st7565r/st7565r.o
 .debug_macro   0x00008ec1      0x2df src/ASF/common/components/display/st7565r/st7565r.o
 .debug_macro   0x000091a0      0x2ff src/ASF/common/components/display/st7565r/st7565r.o
 .debug_macro   0x0000949f       0x79 src/ASF/common/components/display/st7565r/st7565r.o
 .debug_macro   0x00009518       0x2f src/ASF/common/components/display/st7565r/st7565r.o
 .debug_macro   0x00009547      0x154 src/ASF/common/components/display/st7565r/st7565r.o
 .debug_macro   0x0000969b       0x82 src/ASF/common/components/display/st7565r/st7565r.o
 .debug_macro   0x0000971d      0x102 src/ASF/common/components/display/st7565r/st7565r.o
 .debug_macro   0x0000981f       0x28 src/ASF/common/components/display/st7565r/st7565r.o
 .debug_macro   0x00009847       0x22 src/ASF/common/components/display/st7565r/st7565r.o
 .debug_macro   0x00009869       0x3a src/ASF/common/components/display/st7565r/st7565r.o
 .debug_macro   0x000098a3       0xf6 src/ASF/common/components/display/st7565r/st7565r.o
 .debug_macro   0x00009999       0x34 src/ASF/common/components/display/st7565r/st7565r.o
 .debug_macro   0x000099cd       0x2e src/ASF/common/components/display/st7565r/st7565r.o
 .debug_macro   0x000099fb      0x2ba src/ASF/common/services/gfx_mono/gfx_mono_c12832_a1z.o
 .debug_macro   0x00009cb5       0x75 src/ASF/common/services/gfx_mono/gfx_mono_c12832_a1z.o
 .debug_macro   0x00009d2a       0x88 src/ASF/common/services/gfx_mono/gfx_mono_c12832_a1z.o
 .debug_macro   0x00009db2      0x221 src/ASF/xmega/drivers/usart/usart.o
 .debug_macro   0x00009fd3      0x302 src/ASF/xmega/drivers/usart/usart.o
 .debug_macro   0x0000a2d5      0x234 src/ASF/common/services/spi/xmega_usart_spi/usart_spi.o
 .debug_macro   0x0000a509      0x1a3 src/ASF/common/services/sleepmgr/xmega/sleepmgr.o
 .debug_macro   0x0000a6ac       0x10 src/ASF/common/services/sleepmgr/xmega/sleepmgr.o
 .debug_macro   0x0000a6bc       0x42 src/ASF/common/services/sleepmgr/xmega/sleepmgr.o
 .debug_macro   0x0000a6fe      0x2ae src/ASF/common/services/gfx_mono/gfx_mono_framebuffer.o
 .debug_macro   0x0000a9ac      0x2ae src/ASF/common/services/gfx_mono/gfx_mono_generic.o
 .debug_macro   0x0000ac5a      0x1db src/ASF/common/services/clock/xmega/sysclk.o
 .debug_macro   0x0000ae35       0x26 src/ASF/common/services/clock/xmega/sysclk.o
 .debug_macro   0x0000ae5b      0x225 src/ASF/xmega/drivers/tc/tc.o
 .debug_macro   0x0000b080       0x12 src/ASF/xmega/drivers/tc/tc.o
 .debug_macro   0x0000b092      0x2d5 src/ASF/common/services/gfx_mono/gfx_mono_text.o
 .debug_macro   0x0000b367       0xaa src/ASF/common/services/gfx_mono/gfx_mono_text.o
 .debug_macro   0x0000b411      0x2db src/ASF/common/services/gfx_mono/sysfont.o
 .debug_macro   0x0000b6ec       0x3a src/ASF/common/services/gfx_mono/sysfont.o
 .debug_macro   0x0000b726      0x193 src/ASF/common/services/ioport/xmega/ioport_compat.o
 .debug_macro   0x0000b8b9      0x1b5 src/ASF/xmega/boards/xmega_a3bu_xplained/init.o
 .debug_macro   0x0000ba6e       0x2e src/ASF/xmega/boards/xmega_a3bu_xplained/init.o
 .debug_macro   0x0000ba9c      0x2d9 src/ASF/xmega/boards/xmega_a3bu_xplained/init.o
 .debug_macro   0x0000bd75      0x39e src/main.o
 .debug_macro   0x0000c113       0x34 src/main.o
 .debug_macro   0x0000c147       0x16 src/main.o
 .debug_macro   0x0000c15d       0x46 src/main.o
 .debug_macro   0x0000c1a3       0x18 src/main.o
 .debug_macro   0x0000c1bb       0x1c src/main.o
 .debug_macro   0x0000c1d7       0x58 src/main.o
 .debug_macro   0x0000c22f       0x10 src/main.o
 .debug_macro   0x0000c23f       0xf2 src/main.o
OUTPUT(TestProjectUTS.elf elf32-avr)
LOAD linker stubs

.BOOT           0x00040000        0x0
